{
  "_format": "hh-sol-artifact-1",
  "contractName": "BridgeEth",
  "sourceName": "contracts/BridgeEth.sol",
  "abi": [
    {
      "anonymous": false,
      "inputs": [
        {
          "indexed": true,
          "internalType": "uint256",
          "name": "chainId",
          "type": "uint256"
        },
        {
          "indexed": true,
          "internalType": "address",
          "name": "by",
          "type": "address"
        }
      ],
      "name": "ChainAdded",
      "type": "event"
    },
    {
      "anonymous": false,
      "inputs": [
        {
          "indexed": true,
          "internalType": "uint256",
          "name": "chainId",
          "type": "uint256"
        },
        {
          "indexed": true,
          "internalType": "address",
          "name": "by",
          "type": "address"
        }
      ],
      "name": "ChainRemoved",
      "type": "event"
    },
    {
      "anonymous": false,
      "inputs": [
        {
          "indexed": true,
          "internalType": "address",
          "name": "previousOwner",
          "type": "address"
        },
        {
          "indexed": true,
          "internalType": "address",
          "name": "newOwner",
          "type": "address"
        }
      ],
      "name": "OwnershipTransferred",
      "type": "event"
    },
    {
      "anonymous": false,
      "inputs": [
        {
          "indexed": false,
          "internalType": "address",
          "name": "account",
          "type": "address"
        }
      ],
      "name": "Paused",
      "type": "event"
    },
    {
      "anonymous": false,
      "inputs": [
        {
          "indexed": true,
          "internalType": "uint256",
          "name": "itemId",
          "type": "uint256"
        },
        {
          "indexed": true,
          "internalType": "uint256",
          "name": "chainTo",
          "type": "uint256"
        },
        {
          "indexed": true,
          "internalType": "uint256",
          "name": "chainFrom",
          "type": "uint256"
        },
        {
          "indexed": false,
          "internalType": "address",
          "name": "swapper",
          "type": "address"
        },
        {
          "indexed": false,
          "internalType": "address",
          "name": "to",
          "type": "address"
        },
        {
          "indexed": false,
          "internalType": "string",
          "name": "uri",
          "type": "string"
        }
      ],
      "name": "SwapInitialized",
      "type": "event"
    },
    {
      "anonymous": false,
      "inputs": [
        {
          "indexed": true,
          "internalType": "bytes32",
          "name": "hash",
          "type": "bytes32"
        },
        {
          "indexed": true,
          "internalType": "uint256",
          "name": "itemId",
          "type": "uint256"
        },
        {
          "indexed": true,
          "internalType": "uint256",
          "name": "chainFrom",
          "type": "uint256"
        },
        {
          "indexed": false,
          "internalType": "address",
          "name": "to",
          "type": "address"
        }
      ],
      "name": "SwapRedeemed",
      "type": "event"
    },
    {
      "anonymous": false,
      "inputs": [
        {
          "indexed": false,
          "internalType": "address",
          "name": "account",
          "type": "address"
        }
      ],
      "name": "Unpaused",
      "type": "event"
    },
    {
      "inputs": [
        {
          "internalType": "uint256",
          "name": "id",
          "type": "uint256"
        }
      ],
      "name": "addChain",
      "outputs": [],
      "stateMutability": "nonpayable",
      "type": "function"
    },
    {
      "inputs": [],
      "name": "asset",
      "outputs": [
        {
          "internalType": "address",
          "name": "",
          "type": "address"
        }
      ],
      "stateMutability": "view",
      "type": "function"
    },
    {
      "inputs": [
        {
          "internalType": "address",
          "name": "_validator",
          "type": "address"
        },
        {
          "internalType": "address",
          "name": "_asset",
          "type": "address"
        }
      ],
      "name": "initializeBridge",
      "outputs": [],
      "stateMutability": "nonpayable",
      "type": "function"
    },
    {
      "inputs": [
        {
          "internalType": "address",
          "name": "",
          "type": "address"
        },
        {
          "internalType": "address",
          "name": "",
          "type": "address"
        },
        {
          "internalType": "uint256",
          "name": "",
          "type": "uint256"
        },
        {
          "internalType": "bytes",
          "name": "",
          "type": "bytes"
        }
      ],
      "name": "onERC721Received",
      "outputs": [
        {
          "internalType": "bytes4",
          "name": "",
          "type": "bytes4"
        }
      ],
      "stateMutability": "nonpayable",
      "type": "function"
    },
    {
      "inputs": [],
      "name": "owner",
      "outputs": [
        {
          "internalType": "address",
          "name": "",
          "type": "address"
        }
      ],
      "stateMutability": "view",
      "type": "function"
    },
    {
      "inputs": [],
      "name": "pause",
      "outputs": [],
      "stateMutability": "nonpayable",
      "type": "function"
    },
    {
      "inputs": [],
      "name": "paused",
      "outputs": [
        {
          "internalType": "bool",
          "name": "",
          "type": "bool"
        }
      ],
      "stateMutability": "view",
      "type": "function"
    },
    {
      "inputs": [
        {
          "internalType": "bytes32",
          "name": "hash",
          "type": "bytes32"
        },
        {
          "components": [
            {
              "internalType": "uint8",
              "name": "v",
              "type": "uint8"
            },
            {
              "internalType": "bytes32",
              "name": "r",
              "type": "bytes32"
            },
            {
              "internalType": "bytes32",
              "name": "s",
              "type": "bytes32"
            }
          ],
          "internalType": "struct BridgeBase.Sig",
          "name": "sig",
          "type": "tuple"
        },
        {
          "internalType": "uint256",
          "name": "id",
          "type": "uint256"
        },
        {
          "internalType": "string",
          "name": "uri",
          "type": "string"
        },
        {
          "internalType": "address",
          "name": "to",
          "type": "address"
        },
        {
          "internalType": "uint256",
          "name": "chainFrom",
          "type": "uint256"
        }
      ],
      "name": "redeem",
      "outputs": [],
      "stateMutability": "nonpayable",
      "type": "function"
    },
    {
      "inputs": [
        {
          "internalType": "bytes32",
          "name": "",
          "type": "bytes32"
        }
      ],
      "name": "redeemed",
      "outputs": [
        {
          "internalType": "bool",
          "name": "",
          "type": "bool"
        }
      ],
      "stateMutability": "view",
      "type": "function"
    },
    {
      "inputs": [
        {
          "internalType": "uint256",
          "name": "id",
          "type": "uint256"
        }
      ],
      "name": "removeChain",
      "outputs": [],
      "stateMutability": "nonpayable",
      "type": "function"
    },
    {
      "inputs": [],
      "name": "renounceOwnership",
      "outputs": [],
      "stateMutability": "nonpayable",
      "type": "function"
    },
    {
      "inputs": [
        {
          "internalType": "uint256",
          "name": "",
          "type": "uint256"
        }
      ],
      "name": "supportedChains",
      "outputs": [
        {
          "internalType": "bool",
          "name": "",
          "type": "bool"
        }
      ],
      "stateMutability": "view",
      "type": "function"
    },
    {
      "inputs": [
        {
          "internalType": "uint256",
          "name": "id",
          "type": "uint256"
        },
        {
          "internalType": "address",
          "name": "to",
          "type": "address"
        },
        {
          "internalType": "uint256",
          "name": "chainTo",
          "type": "uint256"
        }
      ],
      "name": "swap",
      "outputs": [],
      "stateMutability": "nonpayable",
      "type": "function"
    },
    {
      "inputs": [
        {
          "internalType": "address",
          "name": "newOwner",
          "type": "address"
        }
      ],
      "name": "transferOwnership",
      "outputs": [],
      "stateMutability": "nonpayable",
      "type": "function"
    },
    {
      "inputs": [],
      "name": "unpause",
      "outputs": [],
      "stateMutability": "nonpayable",
      "type": "function"
    },
    {
      "inputs": [],
      "name": "validator",
      "outputs": [
        {
          "internalType": "address",
          "name": "",
          "type": "address"
        }
      ],
      "stateMutability": "view",
      "type": "function"
    }
  ],
  "bytecode": "0x608060405234801561001057600080fd5b506116b0806100206000396000f3fe608060405234801561001057600080fd5b50600436106101005760003560e01c80635c975abb116100975780638da5cb5b116100665780638da5cb5b14610233578063cbf50bb614610244578063f2fde38b14610257578063fd8c75d21461026a57600080fd5b80635c975abb146102055780635f4c7fe714610210578063715018a6146102235780638456cb591461022b57600080fd5b80633f4ba83a116100d35780633f4ba83a146101b257806343264349146101bc578063548d496f146101cf57806356f50367146101f257600080fd5b8063150b7a021461010557806338d52e0f146101415780633a5381b51461016c5780633d8b9e071461017f575b600080fd5b61012361011336600461118f565b630a85bd0160e11b949350505050565b6040516001600160e01b031990911681526020015b60405180910390f35b609854610154906001600160a01b031681565b6040516001600160a01b039091168152602001610138565b609754610154906001600160a01b031681565b6101a261018d36600461123e565b609a6020526000908152604090205460ff1681565b6040519015158152602001610138565b6101ba61027d565b005b6101ba6101ca366004611257565b6102ba565b6101a26101dd36600461123e565b60996020526000908152604090205460ff1681565b6101ba6102003660046112d8565b610521565b60655460ff166101a2565b6101ba61021e366004611395565b6108b4565b6101ba610932565b6101ba610966565b6033546001600160a01b0316610154565b6101ba61025236600461123e565b610998565b6101ba6102653660046113ce565b610a28565b6101ba61027836600461123e565b610ac3565b6033546001600160a01b031633146102b05760405162461bcd60e51b81526004016102a7906113f2565b60405180910390fd5b6102b8610b56565b565b60655460ff16156102dd5760405162461bcd60e51b81526004016102a790611427565b60008181526099602052604090205460ff1661033b5760405162461bcd60e51b815260206004820152601c60248201527f5377617020746f20616e20756e737570706f7274656420636861696e0000000060448201526064016102a7565b6098546040516331a9108f60e11b81526004810185905233916001600160a01b031690636352211e90602401602060405180830381865afa158015610384573d6000803e3d6000fd5b505050506040513d601f19601f820116820180604052508101906103a89190611451565b6001600160a01b0316146103fe5760405162461bcd60e51b815260206004820152601960248201527f43616c6c6572206973206e6f7420746f6b656e206f776e65720000000000000060448201526064016102a7565b609854604051632142170760e11b8152336004820152306024820152604481018590526001600160a01b03909116906342842e0e90606401600060405180830381600087803b15801561045057600080fd5b505af1158015610464573d6000803e3d6000fd5b505060985460405163c87b56dd60e01b81526004810187905246935084925086917f879a18ee254d44a25ac0b277b26c4459306b65697652a034ddc951285170ecbd91339188916001600160a01b039091169063c87b56dd90602401600060405180830381865afa1580156104dd573d6000803e3d6000fd5b505050506040513d6000823e601f3d908101601f19168201604052610505919081019061149e565b60405161051493929190611515565b60405180910390a4505050565b60655460ff16156105445760405162461bcd60e51b81526004016102a790611427565b6097546001600160a01b031633146105a85760405162461bcd60e51b815260206004820152602160248201527f4f6e6c792076616c696461746f722063616e20657865637574652072656465656044820152606d60f81b60648201526084016102a7565b6000878152609a602052604090205460ff16156105fc5760405162461bcd60e51b815260206004820152601260248201527143616e27742072656465656d20747769636560701b60448201526064016102a7565b600061061688886000015189602001518a60400151610be9565b6097549091506001600160a01b038083169116146106715760405162461bcd60e51b815260206004820152601860248201527745434453413a20696e76616c6964207369676e617475726560401b60448201526064016102a7565b609854604051634f558e7960e01b8152600481018890526001600160a01b0390911690634f558e7990602401602060405180830381865afa1580156106ba573d6000803e3d6000fd5b505050506040513d601f19601f820116820180604052508101906106de9190611562565b61074f57609854604051633d89b3cb60e21b81526001600160a01b039091169063f626cf2c9061071890899087908a908a90600401611584565b600060405180830381600087803b15801561073257600080fd5b505af1158015610746573d6000803e3d6000fd5b5050505061084e565b609854604051633114b02b60e01b8152306004820152602481018890526001600160a01b0390911690633114b02b90604401602060405180830381865afa15801561079e573d6000803e3d6000fd5b505050506040513d601f19601f820116820180604052508101906107c29190611562565b1561080657609854604051632142170760e11b81523060048201526001600160a01b03858116602483015260448201899052909116906342842e0e90606401610718565b60405162461bcd60e51b815260206004820152601d60248201527f4974656d20494420616c726561647920696e207468697320636861696e00000060448201526064016102a7565b6000888152609a6020908152604091829020805460ff1916600117905590516001600160a01b0385168152839188918b917fd71600189b4819d63b47b04e0597e1a584be242ea1705299b430eb5a5fc2b19b910160405180910390a45050505050505050565b600054610100900460ff166108cf5760005460ff16156108d3565b303b155b6108ef5760405162461bcd60e51b81526004016102a7906115cb565b600054610100900460ff16158015610911576000805461ffff19166101011790555b61091b8383610c11565b801561092d576000805461ff00191690555b505050565b6033546001600160a01b0316331461095c5760405162461bcd60e51b81526004016102a7906113f2565b6102b86000610cc4565b6033546001600160a01b031633146109905760405162461bcd60e51b81526004016102a7906113f2565b6102b8610d16565b60655460ff16156109bb5760405162461bcd60e51b81526004016102a790611427565b6033546001600160a01b031633146109e55760405162461bcd60e51b81526004016102a7906113f2565b600081815260996020526040808220805460ff1916905551339183917f11387767bd7ecd7eec5a7e5e9958a8363f4494980fe788d791bc09497cf0dff19190a350565b6033546001600160a01b03163314610a525760405162461bcd60e51b81526004016102a7906113f2565b6001600160a01b038116610ab75760405162461bcd60e51b815260206004820152602660248201527f4f776e61626c653a206e6577206f776e657220697320746865207a65726f206160448201526564647265737360d01b60648201526084016102a7565b610ac081610cc4565b50565b60655460ff1615610ae65760405162461bcd60e51b81526004016102a790611427565b6033546001600160a01b03163314610b105760405162461bcd60e51b81526004016102a7906113f2565b600081815260996020526040808220805460ff1916600117905551339183917fd34413f9daf08c09e55b3ad5e2f7f18249f3ff26c061cb904f99597dd14ad53e9190a350565b60655460ff16610b9f5760405162461bcd60e51b815260206004820152601460248201527314185d5cd8589b194e881b9bdd081c185d5cd95960621b60448201526064016102a7565b6065805460ff191690557f5db9ee0a495bf2e6ff9c91a7834c1ba4fdd244a5e8aa4e537bd38aeae4b073aa335b6040516001600160a01b03909116815260200160405180910390a1565b6000806000610bfa87878787610d6e565b91509150610c0781610e5b565b5095945050505050565b600054610100900460ff16610c2c5760005460ff1615610c30565b303b155b610c4c5760405162461bcd60e51b81526004016102a7906115cb565b600054610100900460ff16158015610c6e576000805461ffff19166101011790555b610c76611011565b610c7e611040565b609780546001600160a01b038086166001600160a01b0319928316179092556098805492851692909116919091179055801561092d576000805461ff0019169055505050565b603380546001600160a01b038381166001600160a01b0319831681179093556040519116919082907f8be0079c531659141344cd1fd0a4f28419497f9722a3daafe3b4186f6b6457e090600090a35050565b60655460ff1615610d395760405162461bcd60e51b81526004016102a790611427565b6065805460ff191660011790557f62e78cea01bee320cd4e420270b5ea74000d11b0c9f74754ebdbfc544b05a258610bcc3390565b6000807f7fffffffffffffffffffffffffffffff5d576e7357a4501ddfe92f46681b20a0831115610da55750600090506003610e52565b8460ff16601b14158015610dbd57508460ff16601c14155b15610dce5750600090506004610e52565b6040805160008082526020820180845289905260ff881692820192909252606081018690526080810185905260019060a0016020604051602081039080840390855afa158015610e22573d6000803e3d6000fd5b5050604051601f1901519150506001600160a01b038116610e4b57600060019250925050610e52565b9150600090505b94509492505050565b6000816004811115610e6f57610e6f611619565b1415610e785750565b6001816004811115610e8c57610e8c611619565b1415610ed55760405162461bcd60e51b815260206004820152601860248201527745434453413a20696e76616c6964207369676e617475726560401b60448201526064016102a7565b6002816004811115610ee957610ee9611619565b1415610f375760405162461bcd60e51b815260206004820152601f60248201527f45434453413a20696e76616c6964207369676e6174757265206c656e6774680060448201526064016102a7565b6003816004811115610f4b57610f4b611619565b1415610fa45760405162461bcd60e51b815260206004820152602260248201527f45434453413a20696e76616c6964207369676e6174757265202773272076616c604482015261756560f01b60648201526084016102a7565b6004816004811115610fb857610fb8611619565b1415610ac05760405162461bcd60e51b815260206004820152602260248201527f45434453413a20696e76616c6964207369676e6174757265202776272076616c604482015261756560f01b60648201526084016102a7565b600054610100900460ff166110385760405162461bcd60e51b81526004016102a79061162f565b6102b861106f565b600054610100900460ff166110675760405162461bcd60e51b81526004016102a79061162f565b6102b861109f565b600054610100900460ff166110965760405162461bcd60e51b81526004016102a79061162f565b6102b833610cc4565b600054610100900460ff166110c65760405162461bcd60e51b81526004016102a79061162f565b6065805460ff19169055565b6001600160a01b0381168114610ac057600080fd5b80356110f2816110d2565b919050565b634e487b7160e01b600052604160045260246000fd5b6040516060810167ffffffffffffffff81118282101715611130576111306110f7565b60405290565b604051601f8201601f1916810167ffffffffffffffff8111828210171561115f5761115f6110f7565b604052919050565b600067ffffffffffffffff821115611181576111816110f7565b50601f01601f191660200190565b600080600080608085870312156111a557600080fd5b84356111b0816110d2565b935060208501356111c0816110d2565b925060408501359150606085013567ffffffffffffffff8111156111e357600080fd5b8501601f810187136111f457600080fd5b803561120761120282611167565b611136565b81815288602083850101111561121c57600080fd5b8160208401602083013760006020838301015280935050505092959194509250565b60006020828403121561125057600080fd5b5035919050565b60008060006060848603121561126c57600080fd5b83359250602084013561127e816110d2565b929592945050506040919091013590565b60008083601f8401126112a157600080fd5b50813567ffffffffffffffff8111156112b957600080fd5b6020830191508360208285010111156112d157600080fd5b9250929050565b60008060008060008060008789036101008112156112f557600080fd5b883597506060601f198201121561130b57600080fd5b5061131461110d565b602089013560ff8116811461132857600080fd5b8152604089810135602083015260608a01359082015295506080880135945060a088013567ffffffffffffffff81111561136157600080fd5b61136d8a828b0161128f565b9095509350611380905060c089016110e7565b915060e0880135905092959891949750929550565b600080604083850312156113a857600080fd5b82356113b3816110d2565b915060208301356113c3816110d2565b809150509250929050565b6000602082840312156113e057600080fd5b81356113eb816110d2565b9392505050565b6020808252818101527f4f776e61626c653a2063616c6c6572206973206e6f7420746865206f776e6572604082015260600190565b60208082526010908201526f14185d5cd8589b194e881c185d5cd95960821b604082015260600190565b60006020828403121561146357600080fd5b81516113eb816110d2565b60005b83811015611489578181015183820152602001611471565b83811115611498576000848401525b50505050565b6000602082840312156114b057600080fd5b815167ffffffffffffffff8111156114c757600080fd5b8201601f810184136114d857600080fd5b80516114e661120282611167565b8181528560208385010111156114fb57600080fd5b61150c82602083016020860161146e565b95945050505050565b600060018060a01b03808616835280851660208401525060606040830152825180606084015261154c81608085016020870161146e565b601f01601f191691909101608001949350505050565b60006020828403121561157457600080fd5b815180151581146113eb57600080fd5b8481526001600160a01b03841660208201526060604082018190528101829052818360808301376000818301608090810191909152601f909201601f191601019392505050565b6020808252602e908201527f496e697469616c697a61626c653a20636f6e747261637420697320616c72656160408201526d191e481a5b9a5d1a585b1a5e995960921b606082015260800190565b634e487b7160e01b600052602160045260246000fd5b6020808252602b908201527f496e697469616c697a61626c653a20636f6e7472616374206973206e6f74206960408201526a6e697469616c697a696e6760a81b60608201526080019056fea2646970667358221220c73086e569e037cd85722ae4acc3f5789753822a99c56e76cc9bfedf337f09fe64736f6c634300080c0033",
  "linkReferences": {},
  "deployedLinkReferences": {}
}