{
  "_format": "hh-sol-artifact-1",
  "contractName": "Bridge",
  "sourceName": "contracts/Bridge.sol",
  "abi": [
    {
      "inputs": [
        {
          "internalType": "string",
          "name": "name",
          "type": "string"
        },
        {
          "internalType": "string",
          "name": "version",
          "type": "string"
        },
        {
          "internalType": "address",
          "name": "_gateway",
          "type": "address"
        },
        {
          "internalType": "address",
          "name": "_asset",
          "type": "address"
        }
      ],
      "stateMutability": "nonpayable",
      "type": "constructor"
    },
    {
      "anonymous": false,
      "inputs": [
        {
          "indexed": true,
          "internalType": "bytes32",
          "name": "hash",
          "type": "bytes32"
        },
        {
          "indexed": true,
          "internalType": "uint256",
          "name": "itemId",
          "type": "uint256"
        },
        {
          "indexed": true,
          "internalType": "uint256",
          "name": "chainTo",
          "type": "uint256"
        },
        {
          "indexed": false,
          "internalType": "uint256",
          "name": "chainFrom",
          "type": "uint256"
        },
        {
          "indexed": false,
          "internalType": "address",
          "name": "swapper",
          "type": "address"
        },
        {
          "indexed": false,
          "internalType": "address",
          "name": "to",
          "type": "address"
        },
        {
          "indexed": false,
          "internalType": "string",
          "name": "uri",
          "type": "string"
        }
      ],
      "name": "SwapInitialized",
      "type": "event"
    },
    {
      "anonymous": false,
      "inputs": [
        {
          "indexed": true,
          "internalType": "bytes32",
          "name": "hash",
          "type": "bytes32"
        },
        {
          "indexed": true,
          "internalType": "uint256",
          "name": "itemId",
          "type": "uint256"
        },
        {
          "indexed": true,
          "internalType": "uint256",
          "name": "chainFrom",
          "type": "uint256"
        },
        {
          "indexed": false,
          "internalType": "address",
          "name": "to",
          "type": "address"
        }
      ],
      "name": "SwapRedeemed",
      "type": "event"
    },
    {
      "inputs": [
        {
          "internalType": "uint256",
          "name": "id",
          "type": "uint256"
        }
      ],
      "name": "addChain",
      "outputs": [],
      "stateMutability": "nonpayable",
      "type": "function"
    },
    {
      "inputs": [],
      "name": "asset",
      "outputs": [
        {
          "internalType": "address",
          "name": "",
          "type": "address"
        }
      ],
      "stateMutability": "view",
      "type": "function"
    },
    {
      "inputs": [],
      "name": "chainId",
      "outputs": [
        {
          "internalType": "uint256",
          "name": "",
          "type": "uint256"
        }
      ],
      "stateMutability": "view",
      "type": "function"
    },
    {
      "inputs": [],
      "name": "gateway",
      "outputs": [
        {
          "internalType": "address",
          "name": "",
          "type": "address"
        }
      ],
      "stateMutability": "view",
      "type": "function"
    },
    {
      "inputs": [
        {
          "internalType": "address",
          "name": "",
          "type": "address"
        },
        {
          "internalType": "address",
          "name": "",
          "type": "address"
        },
        {
          "internalType": "uint256",
          "name": "",
          "type": "uint256"
        },
        {
          "internalType": "bytes",
          "name": "",
          "type": "bytes"
        }
      ],
      "name": "onERC721Received",
      "outputs": [
        {
          "internalType": "bytes4",
          "name": "",
          "type": "bytes4"
        }
      ],
      "stateMutability": "nonpayable",
      "type": "function"
    },
    {
      "inputs": [
        {
          "internalType": "bytes32",
          "name": "hash",
          "type": "bytes32"
        },
        {
          "components": [
            {
              "internalType": "uint8",
              "name": "v",
              "type": "uint8"
            },
            {
              "internalType": "bytes32",
              "name": "r",
              "type": "bytes32"
            },
            {
              "internalType": "bytes32",
              "name": "s",
              "type": "bytes32"
            }
          ],
          "internalType": "struct Bridge.Sig",
          "name": "sig",
          "type": "tuple"
        },
        {
          "internalType": "uint256",
          "name": "id",
          "type": "uint256"
        },
        {
          "internalType": "string",
          "name": "uri",
          "type": "string"
        },
        {
          "internalType": "address",
          "name": "to",
          "type": "address"
        },
        {
          "internalType": "uint256",
          "name": "chainFrom",
          "type": "uint256"
        }
      ],
      "name": "redeem",
      "outputs": [],
      "stateMutability": "nonpayable",
      "type": "function"
    },
    {
      "inputs": [
        {
          "internalType": "bytes32",
          "name": "",
          "type": "bytes32"
        }
      ],
      "name": "redeemed",
      "outputs": [
        {
          "internalType": "bool",
          "name": "",
          "type": "bool"
        }
      ],
      "stateMutability": "view",
      "type": "function"
    },
    {
      "inputs": [
        {
          "internalType": "bytes32",
          "name": "",
          "type": "bytes32"
        }
      ],
      "name": "requests",
      "outputs": [
        {
          "internalType": "uint256",
          "name": "itemId",
          "type": "uint256"
        },
        {
          "internalType": "uint256",
          "name": "chainFrom",
          "type": "uint256"
        },
        {
          "internalType": "uint256",
          "name": "chainTo",
          "type": "uint256"
        },
        {
          "internalType": "address",
          "name": "itemContract",
          "type": "address"
        },
        {
          "internalType": "address",
          "name": "swapper",
          "type": "address"
        },
        {
          "internalType": "address",
          "name": "to",
          "type": "address"
        },
        {
          "internalType": "enum Bridge.SwapStatus",
          "name": "status",
          "type": "uint8"
        }
      ],
      "stateMutability": "view",
      "type": "function"
    },
    {
      "inputs": [
        {
          "internalType": "uint256",
          "name": "",
          "type": "uint256"
        }
      ],
      "name": "supportedChains",
      "outputs": [
        {
          "internalType": "bool",
          "name": "",
          "type": "bool"
        }
      ],
      "stateMutability": "view",
      "type": "function"
    },
    {
      "inputs": [
        {
          "internalType": "uint256",
          "name": "id",
          "type": "uint256"
        },
        {
          "internalType": "address",
          "name": "to",
          "type": "address"
        },
        {
          "internalType": "uint256",
          "name": "chainTo",
          "type": "uint256"
        }
      ],
      "name": "swap",
      "outputs": [],
      "stateMutability": "nonpayable",
      "type": "function"
    }
  ],
  "bytecode": "0x6101606040523480156200001257600080fd5b506040516200159a3803806200159a8339810160408190526200003591620001e9565b835160209485012083519385019390932060e08490526101008190524660a0818152604080517f8b73c3c69bb8fe3d512ecc4cf759cc79239f7b179b0ffacaa9a75d522b39400f818a018190528183019890985260608101949094526080808501849052308584018190528251808703909401845260c09586019092528251929098019190912090965294905261012092909252600080546001600160a01b039283166001600160a01b031991821617909155600180549290931691161790556101405262000278565b634e487b7160e01b600052604160045260246000fd5b600082601f8301126200012757600080fd5b81516001600160401b0380821115620001445762000144620000ff565b604051601f8301601f19908116603f011681019082821181831017156200016f576200016f620000ff565b816040528381526020925086838588010111156200018c57600080fd5b600091505b83821015620001b0578582018301518183018401529082019062000191565b83821115620001c25760008385830101525b9695505050505050565b80516001600160a01b0381168114620001e457600080fd5b919050565b600080600080608085870312156200020057600080fd5b84516001600160401b03808211156200021857600080fd5b620002268883890162000115565b955060208701519150808211156200023d57600080fd5b506200024c8782880162000115565b9350506200025d60408601620001cc565b91506200026d60608601620001cc565b905092959194509250565b60805160a05160c05160e0516101005161012051610140516112b9620002e1600039600081816101a001528181610380015261053c015260006109f701526000610a4601526000610a210152600061097a015260006109a4015260006109ce01526112b96000f3fe608060405234801561001057600080fd5b506004361061009e5760003560e01c8063548d496f11610066578063548d496f1461016557806356f50367146101885780639a8a05921461019b5780639d866985146101d0578063fd8c75d21461024257600080fd5b8063116191b6146100a3578063150b7a02146100d357806338d52e0f1461010a5780633d8b9e071461011d5780634326434914610150575b600080fd5b6000546100b6906001600160a01b031681565b6040516001600160a01b0390911681526020015b60405180910390f35b6100f16100e1366004610e73565b630a85bd0160e11b949350505050565b6040516001600160e01b031990911681526020016100ca565b6001546100b6906001600160a01b031681565b61014061012b366004610f22565b60046020526000908152604090205460ff1681565b60405190151581526020016100ca565b61016361015e366004610f3b565b610255565b005b610140610173366004610f22565b60026020526000908152604090205460ff1681565b610163610196366004610fbc565b6105d7565b6101c27f000000000000000000000000000000000000000000000000000000000000000081565b6040519081526020016100ca565b61022f6101de366004610f22565b60036020819052600091825260409091208054600182015460028301549383015460048401546005909401549294919391926001600160a01b0391821692821691811690600160a01b900460ff1687565b6040516100ca979695949392919061108f565b610163610250366004610f22565b6108ae565b60008181526002602052604090205460ff166102b85760405162461bcd60e51b815260206004820152601c60248201527f5377617020746f20616e20756e737570706f7274656420636861696e0000000060448201526064015b60405180910390fd5b6001546040516331a9108f60e11b81526004810185905233916001600160a01b031690636352211e90602401602060405180830381865afa158015610301573d6000803e3d6000fd5b505050506040513d601f19601f8201168201806040525081019061032591906110f3565b6001600160a01b0316146103715760405162461bcd60e51b815260206004820152601360248201527221b0b63632b91034b9903737ba1037bbb732b960691b60448201526064016102af565b6040805160e0810182528481527f00000000000000000000000000000000000000000000000000000000000000006020820152908101829052600180546001600160a01b039081166060840152336080840152841660a083015260c082015260006103db82610923565b6000818152600360208181526040928390208651815590860151600182015591850151600280840191909155606086015191830180546001600160a01b03199081166001600160a01b03948516179091556080870151600485018054831691851691909117905560a087015160058501805492831691909416908117845560c0880151959650879593926001600160a81b03199092161790600160a01b90849081111561048a5761048a611079565b021790555050600154604051632142170760e11b8152336004820152306024820152604481018890526001600160a01b0390911691506342842e0e90606401600060405180830381600087803b1580156104e357600080fd5b505af11580156104f7573d6000803e3d6000fd5b505060015460405163c87b56dd60e01b81526004810189905286935088925084917fb4c4ad8155dc9368c4193c0475732aa76661eeb31326bda3800156afe18f1a38917f00000000000000000000000000000000000000000000000000000000000000009133918b916001600160a01b03169063c87b56dd90602401600060405180830381865afa158015610590573d6000803e3d6000fd5b505050506040513d6000823e601f3d908101601f191682016040526105b89190810190611147565b6040516105c894939291906111be565b60405180910390a45050505050565b6000546001600160a01b031633146106315760405162461bcd60e51b815260206004820152601f60248201527f4f6e6c7920676174657761792063616e20657865637574652072656465656d0060448201526064016102af565b60008781526004602052604090205460ff16156106855760405162461bcd60e51b815260206004820152601260248201527143616e27742072656465656d20747769636560701b60448201526064016102af565b600061069f88886000015189602001518a60400151610945565b6000549091506001600160a01b038083169116146106fa5760405162461bcd60e51b815260206004820152601860248201527745434453413a20696e76616c6964207369676e617475726560401b60448201526064016102af565b600154604051634f558e7960e01b8152600481018890526001600160a01b0390911690634f558e7990602401602060405180830381865afa158015610743573d6000803e3d6000fd5b505050506040513d601f19601f820116820180604052508101906107679190611212565b156107dd57600154604051632142170760e11b81523060048201526001600160a01b03858116602483015260448201899052909116906342842e0e90606401600060405180830381600087803b1580156107c057600080fd5b505af11580156107d4573d6000803e3d6000fd5b50505050610848565b60015460405163f858c5ad60e01b81526001600160a01b039091169063f858c5ad90610815908990869088908b908b90600401611234565b600060405180830381600087803b15801561082f57600080fd5b505af1158015610843573d6000803e3d6000fd5b505050505b600088815260046020908152604091829020805460ff1916600117905590516001600160a01b0385168152839188918b917fd71600189b4819d63b47b04e0597e1a584be242ea1705299b430eb5a5fc2b19b910160405180910390a45050505050505050565b6000546001600160a01b031633146109085760405162461bcd60e51b815260206004820152601a60248201527f4f6e6c7920676174657761792063616e2061646420636861696e00000000000060448201526064016102af565b6000908152600260205260409020805460ff19166001179055565b600061093f61093061096d565b61093a8442610a94565b610ae9565b92915050565b600080600061095687878787610b10565b9150915061096381610bfd565b5095945050505050565b6000306001600160a01b037f0000000000000000000000000000000000000000000000000000000000000000161480156109c657507f000000000000000000000000000000000000000000000000000000000000000046145b156109f057507f000000000000000000000000000000000000000000000000000000000000000090565b50604080517f00000000000000000000000000000000000000000000000000000000000000006020808301919091527f0000000000000000000000000000000000000000000000000000000000000000828401527f000000000000000000000000000000000000000000000000000000000000000060608301524660808301523060a0808401919091528351808403909101815260c0909201909252805191012090565b60008183602001518460400151856060015186608001518760a001518860c00151604051602001610acb979695949392919061108f565b60405160208183030381529060405280519060200120905092915050565b60405161190160f01b60208201526022810183905260428101829052600090606201610acb565b6000807f7fffffffffffffffffffffffffffffff5d576e7357a4501ddfe92f46681b20a0831115610b475750600090506003610bf4565b8460ff16601b14158015610b5f57508460ff16601c14155b15610b705750600090506004610bf4565b6040805160008082526020820180845289905260ff881692820192909252606081018690526080810185905260019060a0016020604051602081039080840390855afa158015610bc4573d6000803e3d6000fd5b5050604051601f1901519150506001600160a01b038116610bed57600060019250925050610bf4565b9150600090505b94509492505050565b6000816004811115610c1157610c11611079565b1415610c1a5750565b6001816004811115610c2e57610c2e611079565b1415610c775760405162461bcd60e51b815260206004820152601860248201527745434453413a20696e76616c6964207369676e617475726560401b60448201526064016102af565b6002816004811115610c8b57610c8b611079565b1415610cd95760405162461bcd60e51b815260206004820152601f60248201527f45434453413a20696e76616c6964207369676e6174757265206c656e6774680060448201526064016102af565b6003816004811115610ced57610ced611079565b1415610d465760405162461bcd60e51b815260206004820152602260248201527f45434453413a20696e76616c6964207369676e6174757265202773272076616c604482015261756560f01b60648201526084016102af565b6004816004811115610d5a57610d5a611079565b1415610db35760405162461bcd60e51b815260206004820152602260248201527f45434453413a20696e76616c6964207369676e6174757265202776272076616c604482015261756560f01b60648201526084016102af565b50565b6001600160a01b0381168114610db357600080fd5b8035610dd681610db6565b919050565b634e487b7160e01b600052604160045260246000fd5b6040516060810167ffffffffffffffff81118282101715610e1457610e14610ddb565b60405290565b604051601f8201601f1916810167ffffffffffffffff81118282101715610e4357610e43610ddb565b604052919050565b600067ffffffffffffffff821115610e6557610e65610ddb565b50601f01601f191660200190565b60008060008060808587031215610e8957600080fd5b8435610e9481610db6565b93506020850135610ea481610db6565b925060408501359150606085013567ffffffffffffffff811115610ec757600080fd5b8501601f81018713610ed857600080fd5b8035610eeb610ee682610e4b565b610e1a565b818152886020838501011115610f0057600080fd5b8160208401602083013760006020838301015280935050505092959194509250565b600060208284031215610f3457600080fd5b5035919050565b600080600060608486031215610f5057600080fd5b833592506020840135610f6281610db6565b929592945050506040919091013590565b60008083601f840112610f8557600080fd5b50813567ffffffffffffffff811115610f9d57600080fd5b602083019150836020828501011115610fb557600080fd5b9250929050565b6000806000806000806000878903610100811215610fd957600080fd5b883597506060601f1982011215610fef57600080fd5b50610ff8610df1565b602089013560ff8116811461100c57600080fd5b8152604089810135602083015260608a01359082015295506080880135945060a088013567ffffffffffffffff81111561104557600080fd5b6110518a828b01610f73565b9095509350611064905060c08901610dcb565b915060e0880135905092959891949750929550565b634e487b7160e01b600052602160045260246000fd5b87815260208101879052604081018690526001600160a01b0385811660608301528481166080830152831660a082015260e08101600383106110e157634e487b7160e01b600052602160045260246000fd5b8260c083015298975050505050505050565b60006020828403121561110557600080fd5b815161111081610db6565b9392505050565b60005b8381101561113257818101518382015260200161111a565b83811115611141576000848401525b50505050565b60006020828403121561115957600080fd5b815167ffffffffffffffff81111561117057600080fd5b8201601f8101841361118157600080fd5b805161118f610ee682610e4b565b8181528560208385010111156111a457600080fd5b6111b5826020830160208601611117565b95945050505050565b848152600060018060a01b0380861660208401528085166040840152506080606083015282518060808401526111fb8160a0850160208701611117565b601f01601f19169190910160a00195945050505050565b60006020828403121561122457600080fd5b8151801515811461111057600080fd5b858152602081018590526001600160a01b03841660408201526080606082018190528101829052818360a0830137600081830160a090810191909152601f909201601f1916010194935050505056fea2646970667358221220189f4beec303f4764920255a50cce31a59bea0f6c166d6cb1a5bab02fe00f25364736f6c634300080a0033",
  "linkReferences": {},
  "deployedLinkReferences": {}
}