{
  "_format": "hh-sol-artifact-1",
  "contractName": "BridgeEth",
  "sourceName": "contracts/BridgeEth.sol",
  "abi": [
    {
      "inputs": [
        {
          "internalType": "string",
          "name": "name",
          "type": "string"
        },
        {
          "internalType": "string",
          "name": "version",
          "type": "string"
        },
        {
          "internalType": "address",
          "name": "_validator",
          "type": "address"
        },
        {
          "internalType": "address",
          "name": "_asset",
          "type": "address"
        }
      ],
      "stateMutability": "nonpayable",
      "type": "constructor"
    },
    {
      "anonymous": false,
      "inputs": [
        {
          "indexed": true,
          "internalType": "uint256",
          "name": "chainId",
          "type": "uint256"
        },
        {
          "indexed": true,
          "internalType": "address",
          "name": "by",
          "type": "address"
        }
      ],
      "name": "ChainAdded",
      "type": "event"
    },
    {
      "anonymous": false,
      "inputs": [
        {
          "indexed": true,
          "internalType": "uint256",
          "name": "chainId",
          "type": "uint256"
        },
        {
          "indexed": true,
          "internalType": "address",
          "name": "by",
          "type": "address"
        }
      ],
      "name": "ChainRemoved",
      "type": "event"
    },
    {
      "anonymous": false,
      "inputs": [
        {
          "indexed": true,
          "internalType": "address",
          "name": "previousOwner",
          "type": "address"
        },
        {
          "indexed": true,
          "internalType": "address",
          "name": "newOwner",
          "type": "address"
        }
      ],
      "name": "OwnershipTransferred",
      "type": "event"
    },
    {
      "anonymous": false,
      "inputs": [
        {
          "indexed": false,
          "internalType": "address",
          "name": "account",
          "type": "address"
        }
      ],
      "name": "Paused",
      "type": "event"
    },
    {
      "anonymous": false,
      "inputs": [
        {
          "indexed": true,
          "internalType": "uint256",
          "name": "itemId",
          "type": "uint256"
        },
        {
          "indexed": true,
          "internalType": "uint256",
          "name": "chainTo",
          "type": "uint256"
        },
        {
          "indexed": true,
          "internalType": "uint256",
          "name": "chainFrom",
          "type": "uint256"
        },
        {
          "indexed": false,
          "internalType": "address",
          "name": "swapper",
          "type": "address"
        },
        {
          "indexed": false,
          "internalType": "address",
          "name": "to",
          "type": "address"
        },
        {
          "indexed": false,
          "internalType": "string",
          "name": "uri",
          "type": "string"
        }
      ],
      "name": "SwapInitialized",
      "type": "event"
    },
    {
      "anonymous": false,
      "inputs": [
        {
          "indexed": true,
          "internalType": "bytes32",
          "name": "hash",
          "type": "bytes32"
        },
        {
          "indexed": true,
          "internalType": "uint256",
          "name": "itemId",
          "type": "uint256"
        },
        {
          "indexed": true,
          "internalType": "uint256",
          "name": "chainFrom",
          "type": "uint256"
        },
        {
          "indexed": false,
          "internalType": "address",
          "name": "to",
          "type": "address"
        }
      ],
      "name": "SwapRedeemed",
      "type": "event"
    },
    {
      "anonymous": false,
      "inputs": [
        {
          "indexed": false,
          "internalType": "address",
          "name": "account",
          "type": "address"
        }
      ],
      "name": "Unpaused",
      "type": "event"
    },
    {
      "inputs": [
        {
          "internalType": "uint256",
          "name": "id",
          "type": "uint256"
        }
      ],
      "name": "addChain",
      "outputs": [],
      "stateMutability": "nonpayable",
      "type": "function"
    },
    {
      "inputs": [],
      "name": "asset",
      "outputs": [
        {
          "internalType": "address",
          "name": "",
          "type": "address"
        }
      ],
      "stateMutability": "view",
      "type": "function"
    },
    {
      "inputs": [
        {
          "internalType": "address",
          "name": "",
          "type": "address"
        },
        {
          "internalType": "address",
          "name": "",
          "type": "address"
        },
        {
          "internalType": "uint256",
          "name": "",
          "type": "uint256"
        },
        {
          "internalType": "bytes",
          "name": "",
          "type": "bytes"
        }
      ],
      "name": "onERC721Received",
      "outputs": [
        {
          "internalType": "bytes4",
          "name": "",
          "type": "bytes4"
        }
      ],
      "stateMutability": "nonpayable",
      "type": "function"
    },
    {
      "inputs": [],
      "name": "owner",
      "outputs": [
        {
          "internalType": "address",
          "name": "",
          "type": "address"
        }
      ],
      "stateMutability": "view",
      "type": "function"
    },
    {
      "inputs": [],
      "name": "pause",
      "outputs": [],
      "stateMutability": "nonpayable",
      "type": "function"
    },
    {
      "inputs": [],
      "name": "paused",
      "outputs": [
        {
          "internalType": "bool",
          "name": "",
          "type": "bool"
        }
      ],
      "stateMutability": "view",
      "type": "function"
    },
    {
      "inputs": [
        {
          "internalType": "bytes32",
          "name": "hash",
          "type": "bytes32"
        },
        {
          "components": [
            {
              "internalType": "uint8",
              "name": "v",
              "type": "uint8"
            },
            {
              "internalType": "bytes32",
              "name": "r",
              "type": "bytes32"
            },
            {
              "internalType": "bytes32",
              "name": "s",
              "type": "bytes32"
            }
          ],
          "internalType": "struct BridgeBase.Sig",
          "name": "sig",
          "type": "tuple"
        },
        {
          "internalType": "uint256",
          "name": "id",
          "type": "uint256"
        },
        {
          "internalType": "string",
          "name": "uri",
          "type": "string"
        },
        {
          "internalType": "address",
          "name": "to",
          "type": "address"
        },
        {
          "internalType": "uint256",
          "name": "chainFrom",
          "type": "uint256"
        }
      ],
      "name": "redeem",
      "outputs": [],
      "stateMutability": "nonpayable",
      "type": "function"
    },
    {
      "inputs": [
        {
          "internalType": "bytes32",
          "name": "",
          "type": "bytes32"
        }
      ],
      "name": "redeemed",
      "outputs": [
        {
          "internalType": "bool",
          "name": "",
          "type": "bool"
        }
      ],
      "stateMutability": "view",
      "type": "function"
    },
    {
      "inputs": [
        {
          "internalType": "uint256",
          "name": "id",
          "type": "uint256"
        }
      ],
      "name": "removeChain",
      "outputs": [],
      "stateMutability": "nonpayable",
      "type": "function"
    },
    {
      "inputs": [],
      "name": "renounceOwnership",
      "outputs": [],
      "stateMutability": "nonpayable",
      "type": "function"
    },
    {
      "inputs": [
        {
          "internalType": "uint256",
          "name": "",
          "type": "uint256"
        }
      ],
      "name": "supportedChains",
      "outputs": [
        {
          "internalType": "bool",
          "name": "",
          "type": "bool"
        }
      ],
      "stateMutability": "view",
      "type": "function"
    },
    {
      "inputs": [
        {
          "internalType": "uint256",
          "name": "id",
          "type": "uint256"
        },
        {
          "internalType": "address",
          "name": "to",
          "type": "address"
        },
        {
          "internalType": "uint256",
          "name": "chainTo",
          "type": "uint256"
        }
      ],
      "name": "swap",
      "outputs": [],
      "stateMutability": "nonpayable",
      "type": "function"
    },
    {
      "inputs": [
        {
          "internalType": "address",
          "name": "newOwner",
          "type": "address"
        }
      ],
      "name": "transferOwnership",
      "outputs": [],
      "stateMutability": "nonpayable",
      "type": "function"
    },
    {
      "inputs": [],
      "name": "unpause",
      "outputs": [],
      "stateMutability": "nonpayable",
      "type": "function"
    },
    {
      "inputs": [],
      "name": "validator",
      "outputs": [
        {
          "internalType": "address",
          "name": "",
          "type": "address"
        }
      ],
      "stateMutability": "view",
      "type": "function"
    }
  ],
  "bytecode": "0x6101406040523480156200001257600080fd5b506040516200169438038062001694833981016040819052620000359162000253565b835160208086019190912084518583012060e08290526101008190524660a0818152604080517f8b73c3c69bb8fe3d512ecc4cf759cc79239f7b179b0ffacaa9a75d522b39400f818801819052818301969096526060810194909452608080850193909352308483018190528151808603909301835260c0948501909152815191909501209052919091526101205283838383620000d33362000119565b6000805460ff60a01b19169055600180546001600160a01b039384166001600160a01b0319918216179091556002805492909316911617905550620002e2945050505050565b600080546001600160a01b038381166001600160a01b0319831681178455604051919092169283917f8be0079c531659141344cd1fd0a4f28419497f9722a3daafe3b4186f6b6457e09190a35050565b634e487b7160e01b600052604160045260246000fd5b600082601f8301126200019157600080fd5b81516001600160401b0380821115620001ae57620001ae62000169565b604051601f8301601f19908116603f01168101908282118183101715620001d957620001d962000169565b81604052838152602092508683858801011115620001f657600080fd5b600091505b838210156200021a5785820183015181830184015290820190620001fb565b838211156200022c5760008385830101525b9695505050505050565b80516001600160a01b03811681146200024e57600080fd5b919050565b600080600080608085870312156200026a57600080fd5b84516001600160401b03808211156200028257600080fd5b62000290888389016200017f565b95506020870151915080821115620002a757600080fd5b50620002b6878288016200017f565b935050620002c76040860162000236565b9150620002d76060860162000236565b905092959194509250565b60805160a05160c05160e0516101005161012051611374620003206000396000505060005050600050506000505060005050600050506113746000f3fe608060405234801561001057600080fd5b50600436106100f55760003560e01c806356f50367116100975780638da5cb5b116100665780638da5cb5b1461021c578063cbf50bb61461022d578063f2fde38b14610240578063fd8c75d21461025357600080fd5b806356f50367146101e75780635c975abb146101fa578063715018a61461020c5780638456cb591461021457600080fd5b80633d8b9e07116100d35780633d8b9e07146101745780633f4ba83a146101a757806343264349146101b1578063548d496f146101c457600080fd5b8063150b7a02146100fa57806338d52e0f146101365780633a5381b514610161575b600080fd5b610118610108366004610f25565b630a85bd0160e11b949350505050565b6040516001600160e01b031990911681526020015b60405180910390f35b600254610149906001600160a01b031681565b6040516001600160a01b03909116815260200161012d565b600154610149906001600160a01b031681565b610197610182366004610fd4565b60046020526000908152604090205460ff1681565b604051901515815260200161012d565b6101af610266565b005b6101af6101bf366004610fed565b6102a3565b6101976101d2366004610fd4565b60036020526000908152604090205460ff1681565b6101af6101f536600461106e565b610511565b600054600160a01b900460ff16610197565b6101af610819565b6101af61084d565b6000546001600160a01b0316610149565b6101af61023b366004610fd4565b61087f565b6101af61024e36600461112b565b610916565b6101af610261366004610fd4565b6109b1565b6000546001600160a01b031633146102995760405162461bcd60e51b81526004016102909061114f565b60405180910390fd5b6102a1610a4b565b565b600054600160a01b900460ff16156102cd5760405162461bcd60e51b815260040161029090611184565b60008181526003602052604090205460ff1661032b5760405162461bcd60e51b815260206004820152601c60248201527f5377617020746f20616e20756e737570706f7274656420636861696e000000006044820152606401610290565b6002546040516331a9108f60e11b81526004810185905233916001600160a01b031690636352211e90602401602060405180830381865afa158015610374573d6000803e3d6000fd5b505050506040513d601f19601f8201168201806040525081019061039891906111ae565b6001600160a01b0316146103ee5760405162461bcd60e51b815260206004820152601960248201527f43616c6c6572206973206e6f7420746f6b656e206f776e6572000000000000006044820152606401610290565b600254604051632142170760e11b8152336004820152306024820152604481018590526001600160a01b03909116906342842e0e90606401600060405180830381600087803b15801561044057600080fd5b505af1158015610454573d6000803e3d6000fd5b505060025460405163c87b56dd60e01b81526004810187905246935084925086917f879a18ee254d44a25ac0b277b26c4459306b65697652a034ddc951285170ecbd91339188916001600160a01b039091169063c87b56dd90602401600060405180830381865afa1580156104cd573d6000803e3d6000fd5b505050506040513d6000823e601f3d908101601f191682016040526104f591908101906111fb565b60405161050493929190611272565b60405180910390a4505050565b600054600160a01b900460ff161561053b5760405162461bcd60e51b815260040161029090611184565b6001546001600160a01b0316331461059f5760405162461bcd60e51b815260206004820152602160248201527f4f6e6c792076616c696461746f722063616e20657865637574652072656465656044820152606d60f81b6064820152608401610290565b60008781526004602052604090205460ff16156105f35760405162461bcd60e51b815260206004820152601260248201527143616e27742072656465656d20747769636560701b6044820152606401610290565b600061060d88886000015189602001518a60400151610ae8565b6001549091506001600160a01b038083169116146106685760405162461bcd60e51b815260206004820152601860248201527745434453413a20696e76616c6964207369676e617475726560401b6044820152606401610290565b600254604051634f558e7960e01b8152600481018890526001600160a01b0390911690634f558e7990602401602060405180830381865afa1580156106b1573d6000803e3d6000fd5b505050506040513d601f19601f820116820180604052508101906106d591906112bf565b61074657600254604051633d89b3cb60e21b81526001600160a01b039091169063f626cf2c9061070f90899087908a908a906004016112e1565b600060405180830381600087803b15801561072957600080fd5b505af115801561073d573d6000803e3d6000fd5b505050506107b3565b600254604051632142170760e11b81523060048201526001600160a01b03858116602483015260448201899052909116906342842e0e90606401600060405180830381600087803b15801561079a57600080fd5b505af11580156107ae573d6000803e3d6000fd5b505050505b600088815260046020908152604091829020805460ff1916600117905590516001600160a01b0385168152839188918b917fd71600189b4819d63b47b04e0597e1a584be242ea1705299b430eb5a5fc2b19b910160405180910390a45050505050505050565b6000546001600160a01b031633146108435760405162461bcd60e51b81526004016102909061114f565b6102a16000610b10565b6000546001600160a01b031633146108775760405162461bcd60e51b81526004016102909061114f565b6102a1610b60565b600054600160a01b900460ff16156108a95760405162461bcd60e51b815260040161029090611184565b6000546001600160a01b031633146108d35760405162461bcd60e51b81526004016102909061114f565b600081815260036020526040808220805460ff1916905551339183917f11387767bd7ecd7eec5a7e5e9958a8363f4494980fe788d791bc09497cf0dff19190a350565b6000546001600160a01b031633146109405760405162461bcd60e51b81526004016102909061114f565b6001600160a01b0381166109a55760405162461bcd60e51b815260206004820152602660248201527f4f776e61626c653a206e6577206f776e657220697320746865207a65726f206160448201526564647265737360d01b6064820152608401610290565b6109ae81610b10565b50565b600054600160a01b900460ff16156109db5760405162461bcd60e51b815260040161029090611184565b6000546001600160a01b03163314610a055760405162461bcd60e51b81526004016102909061114f565b600081815260036020526040808220805460ff1916600117905551339183917fd34413f9daf08c09e55b3ad5e2f7f18249f3ff26c061cb904f99597dd14ad53e9190a350565b600054600160a01b900460ff16610a9b5760405162461bcd60e51b815260206004820152601460248201527314185d5cd8589b194e881b9bdd081c185d5cd95960621b6044820152606401610290565b6000805460ff60a01b191690557f5db9ee0a495bf2e6ff9c91a7834c1ba4fdd244a5e8aa4e537bd38aeae4b073aa335b6040516001600160a01b03909116815260200160405180910390a1565b6000806000610af987878787610bc5565b91509150610b0681610cb2565b5095945050505050565b600080546001600160a01b038381166001600160a01b0319831681178455604051919092169283917f8be0079c531659141344cd1fd0a4f28419497f9722a3daafe3b4186f6b6457e09190a35050565b600054600160a01b900460ff1615610b8a5760405162461bcd60e51b815260040161029090611184565b6000805460ff60a01b1916600160a01b1790557f62e78cea01bee320cd4e420270b5ea74000d11b0c9f74754ebdbfc544b05a258610acb3390565b6000807f7fffffffffffffffffffffffffffffff5d576e7357a4501ddfe92f46681b20a0831115610bfc5750600090506003610ca9565b8460ff16601b14158015610c1457508460ff16601c14155b15610c255750600090506004610ca9565b6040805160008082526020820180845289905260ff881692820192909252606081018690526080810185905260019060a0016020604051602081039080840390855afa158015610c79573d6000803e3d6000fd5b5050604051601f1901519150506001600160a01b038116610ca257600060019250925050610ca9565b9150600090505b94509492505050565b6000816004811115610cc657610cc6611328565b1415610ccf5750565b6001816004811115610ce357610ce3611328565b1415610d2c5760405162461bcd60e51b815260206004820152601860248201527745434453413a20696e76616c6964207369676e617475726560401b6044820152606401610290565b6002816004811115610d4057610d40611328565b1415610d8e5760405162461bcd60e51b815260206004820152601f60248201527f45434453413a20696e76616c6964207369676e6174757265206c656e677468006044820152606401610290565b6003816004811115610da257610da2611328565b1415610dfb5760405162461bcd60e51b815260206004820152602260248201527f45434453413a20696e76616c6964207369676e6174757265202773272076616c604482015261756560f01b6064820152608401610290565b6004816004811115610e0f57610e0f611328565b14156109ae5760405162461bcd60e51b815260206004820152602260248201527f45434453413a20696e76616c6964207369676e6174757265202776272076616c604482015261756560f01b6064820152608401610290565b6001600160a01b03811681146109ae57600080fd5b8035610e8881610e68565b919050565b634e487b7160e01b600052604160045260246000fd5b6040516060810167ffffffffffffffff81118282101715610ec657610ec6610e8d565b60405290565b604051601f8201601f1916810167ffffffffffffffff81118282101715610ef557610ef5610e8d565b604052919050565b600067ffffffffffffffff821115610f1757610f17610e8d565b50601f01601f191660200190565b60008060008060808587031215610f3b57600080fd5b8435610f4681610e68565b93506020850135610f5681610e68565b925060408501359150606085013567ffffffffffffffff811115610f7957600080fd5b8501601f81018713610f8a57600080fd5b8035610f9d610f9882610efd565b610ecc565b818152886020838501011115610fb257600080fd5b8160208401602083013760006020838301015280935050505092959194509250565b600060208284031215610fe657600080fd5b5035919050565b60008060006060848603121561100257600080fd5b83359250602084013561101481610e68565b929592945050506040919091013590565b60008083601f84011261103757600080fd5b50813567ffffffffffffffff81111561104f57600080fd5b60208301915083602082850101111561106757600080fd5b9250929050565b600080600080600080600087890361010081121561108b57600080fd5b883597506060601f19820112156110a157600080fd5b506110aa610ea3565b602089013560ff811681146110be57600080fd5b8152604089810135602083015260608a01359082015295506080880135945060a088013567ffffffffffffffff8111156110f757600080fd5b6111038a828b01611025565b9095509350611116905060c08901610e7d565b915060e0880135905092959891949750929550565b60006020828403121561113d57600080fd5b813561114881610e68565b9392505050565b6020808252818101527f4f776e61626c653a2063616c6c6572206973206e6f7420746865206f776e6572604082015260600190565b60208082526010908201526f14185d5cd8589b194e881c185d5cd95960821b604082015260600190565b6000602082840312156111c057600080fd5b815161114881610e68565b60005b838110156111e65781810151838201526020016111ce565b838111156111f5576000848401525b50505050565b60006020828403121561120d57600080fd5b815167ffffffffffffffff81111561122457600080fd5b8201601f8101841361123557600080fd5b8051611243610f9882610efd565b81815285602083850101111561125857600080fd5b6112698260208301602086016111cb565b95945050505050565b600060018060a01b0380861683528085166020840152506060604083015282518060608401526112a98160808501602087016111cb565b601f01601f191691909101608001949350505050565b6000602082840312156112d157600080fd5b8151801515811461114857600080fd5b8481526001600160a01b03841660208201526060604082018190528101829052818360808301376000818301608090810191909152601f909201601f191601019392505050565b634e487b7160e01b600052602160045260246000fdfea2646970667358221220de8e9ea05a28c10034adf4585705d068da7a8fe45b27e5d5b5382fb7c737996d64736f6c634300080a0033",
  "linkReferences": {},
  "deployedLinkReferences": {}
}