{
  "_format": "hh-sol-artifact-1",
  "contractName": "MainBridge",
  "sourceName": "contracts/bridge/MainBridge.sol",
  "abi": [
    {
      "inputs": [
        {
          "internalType": "string",
          "name": "name",
          "type": "string"
        },
        {
          "internalType": "string",
          "name": "version",
          "type": "string"
        },
        {
          "internalType": "address",
          "name": "_eth",
          "type": "address"
        },
        {
          "internalType": "address",
          "name": "_bsc",
          "type": "address"
        },
        {
          "internalType": "address",
          "name": "_gateway",
          "type": "address"
        }
      ],
      "stateMutability": "nonpayable",
      "type": "constructor"
    },
    {
      "anonymous": false,
      "inputs": [
        {
          "indexed": true,
          "internalType": "bytes32",
          "name": "swapHash",
          "type": "bytes32"
        },
        {
          "indexed": false,
          "internalType": "address",
          "name": "item",
          "type": "address"
        },
        {
          "indexed": true,
          "internalType": "uint256",
          "name": "itemId",
          "type": "uint256"
        },
        {
          "indexed": false,
          "internalType": "address",
          "name": "swapper",
          "type": "address"
        },
        {
          "indexed": false,
          "internalType": "uint256",
          "name": "_chainFrom",
          "type": "uint256"
        },
        {
          "indexed": false,
          "internalType": "uint256",
          "name": "_chainTo",
          "type": "uint256"
        },
        {
          "indexed": false,
          "internalType": "address",
          "name": "to",
          "type": "address"
        }
      ],
      "name": "SwapInitialized",
      "type": "event"
    },
    {
      "anonymous": false,
      "inputs": [
        {
          "indexed": true,
          "internalType": "bytes32",
          "name": "hash",
          "type": "bytes32"
        }
      ],
      "name": "SwapRedeemed",
      "type": "event"
    },
    {
      "inputs": [
        {
          "internalType": "bytes32",
          "name": "hash",
          "type": "bytes32"
        },
        {
          "internalType": "uint8",
          "name": "v",
          "type": "uint8"
        },
        {
          "internalType": "bytes32",
          "name": "r",
          "type": "bytes32"
        },
        {
          "internalType": "bytes32",
          "name": "s",
          "type": "bytes32"
        }
      ],
      "name": "redeem",
      "outputs": [],
      "stateMutability": "nonpayable",
      "type": "function"
    },
    {
      "inputs": [
        {
          "internalType": "bytes32",
          "name": "",
          "type": "bytes32"
        }
      ],
      "name": "redeemed",
      "outputs": [
        {
          "internalType": "bool",
          "name": "",
          "type": "bool"
        }
      ],
      "stateMutability": "view",
      "type": "function"
    },
    {
      "inputs": [
        {
          "internalType": "bytes32",
          "name": "",
          "type": "bytes32"
        }
      ],
      "name": "requests",
      "outputs": [
        {
          "internalType": "uint256",
          "name": "itemId",
          "type": "uint256"
        },
        {
          "internalType": "uint256",
          "name": "_chainFrom",
          "type": "uint256"
        },
        {
          "internalType": "uint256",
          "name": "_chainTo",
          "type": "uint256"
        },
        {
          "internalType": "string",
          "name": "tokenURI",
          "type": "string"
        },
        {
          "internalType": "address",
          "name": "itemContract",
          "type": "address"
        },
        {
          "internalType": "address",
          "name": "swapper",
          "type": "address"
        },
        {
          "internalType": "address",
          "name": "to",
          "type": "address"
        },
        {
          "internalType": "enum MainBridge.SwapStatus",
          "name": "status",
          "type": "uint8"
        }
      ],
      "stateMutability": "view",
      "type": "function"
    },
    {
      "inputs": [
        {
          "internalType": "uint256",
          "name": "_itemId",
          "type": "uint256"
        },
        {
          "internalType": "address",
          "name": "_to",
          "type": "address"
        },
        {
          "internalType": "uint256",
          "name": "_chainFrom",
          "type": "uint256"
        },
        {
          "internalType": "uint256",
          "name": "_chainTo",
          "type": "uint256"
        }
      ],
      "name": "swap",
      "outputs": [],
      "stateMutability": "nonpayable",
      "type": "function"
    }
  ],
  "bytecode": "0x6101406040523480156200001257600080fd5b50604051620010f4380380620010f48339810160408190526200003591620001f4565b845160209586012084519486019490942060e08590526101008190524660a0818152604080517f8b73c3c69bb8fe3d512ecc4cf759cc79239f7b179b0ffacaa9a75d522b39400f818b01819052818301999099526060810194909452608080850193909352308483018190528151808603909301835260c09485019091528151919098012090529490945261012092909252600180546001600160a01b039283166001600160a01b03199182161790915560028054938316938216939093179092556000805491909316911617905562000296565b634e487b7160e01b600052604160045260246000fd5b600082601f8301126200013257600080fd5b81516001600160401b03808211156200014f576200014f6200010a565b604051601f8301601f19908116603f011681019082821181831017156200017a576200017a6200010a565b816040528381526020925086838588010111156200019757600080fd5b600091505b83821015620001bb57858201830151818301840152908201906200019c565b83821115620001cd5760008385830101525b9695505050505050565b80516001600160a01b0381168114620001ef57600080fd5b919050565b600080600080600060a086880312156200020d57600080fd5b85516001600160401b03808211156200022557600080fd5b6200023389838a0162000120565b965060208801519150808211156200024a57600080fd5b50620002598882890162000120565b9450506200026a60408701620001d7565b92506200027a60608701620001d7565b91506200028a60808701620001d7565b90509295509295909350565b60805160a05160c05160e0516101005161012051610e0e620002e66000396000610977015260006109c6015260006109a1015260006108fa015260006109240152600061094e0152610e0e6000f3fe608060405234801561001057600080fd5b506004361061004c5760003560e01c80633d8b9e07146100515780639aef4861146100895780639d8669851461009e578063b33daea9146100c5575b600080fd5b61007461005f366004610b01565b60046020526000908152604090205460ff1681565b60405190151581526020015b60405180910390f35b61009c610097366004610b1a565b6100d8565b005b6100b16100ac366004610b01565b61027b565b604051610080989796959493929190610bc5565b61009c6100d3366004610c40565b610361565b6000546001600160a01b031633146101375760405162461bcd60e51b815260206004820152601f60248201527f4f6e6c7920676174657761792063616e20657865637574652072656465656d0060448201526064015b60405180910390fd5b6000610145858585856105c3565b6000549091506001600160a01b038083169116146101a05760405162461bcd60e51b815260206004820152601860248201527745434453413a20696e76616c6964207369676e617475726560401b604482015260640161012e565b600085815260046020819052604091829020805460ff19166001908117909155548251636902622f60e11b815230928101929092526024820192909252600360448201526275726960e81b60648201526001600160a01b039091169063d204c45e906084016020604051808303816000875af1158015610224573d6000803e3d6000fd5b505050506040513d601f19601f820116820180604052508101906102489190610c74565b5060405185907f37661eeaa88dbd391f25edc91e1e2aa0f6fd5ae88e39111d663a9c753bdbdb7890600090a25050505050565b60036020528060005260406000206000915090508060000154908060010154908060020154908060030180546102b090610c8d565b80601f01602080910402602001604051908101604052809291908181526020018280546102dc90610c8d565b80156103295780601f106102fe57610100808354040283529160200191610329565b820191906000526020600020905b81548152906001019060200180831161030c57829003601f168201915b505050506004830154600584015460069094015492936001600160a01b0391821693908216925090811690600160a01b900460ff1688565b604080516101008101825285815260208101849052808201839052600154915163c87b56dd60e01b81526004810187905260009260608301916001600160a01b039091169063c87b56dd90602401600060405180830381865afa1580156103cc573d6000803e3d6000fd5b505050506040513d6000823e601f3d908101601f191682016040526103f49190810190610cde565b8152600180546001600160a01b039081166020840152336040840152871660608301526080909101529050600061042a826105eb565b6000818152600360208181526040928390208651815581870151600182015592860151600284015560608601518051949550869461046f938501929190910190610a68565b5060808201516004820180546001600160a01b03199081166001600160a01b039384161790915560a0840151600584018054831691841691909117905560c084015160068401805492831691909316908117835560e085015192916001600160a81b03191617600160a01b8360028111156104ec576104ec610b8d565b0217905550506001546040516323b872dd60e01b8152336004820152306024820152604481018990526001600160a01b0390911691506323b872dd90606401600060405180830381600087803b15801561054557600080fd5b505af1158015610559573d6000803e3d6000fd5b5050600154604080516001600160a01b039283168152336020820152808201899052606081018890529189166080830152518993508492507fae65bb0dd736e5930351d8136d263c5a57f49f12af21dbeb839cf12dc6adcf539181900360a00190a3505050505050565b60008060006105d487878787610647565b915091506105e181610734565b5095945050505050565b60006106416105f86108ed565b61060184610a14565b60405161190160f01b6020820152602281018390526042810182905260009060620160405160208183030381529060405280519060200120905092915050565b92915050565b6000807f7fffffffffffffffffffffffffffffff5d576e7357a4501ddfe92f46681b20a083111561067e575060009050600361072b565b8460ff16601b1415801561069657508460ff16601c14155b156106a7575060009050600461072b565b6040805160008082526020820180845289905260ff881692820192909252606081018690526080810185905260019060a0016020604051602081039080840390855afa1580156106fb573d6000803e3d6000fd5b5050604051601f1901519150506001600160a01b0381166107245760006001925092505061072b565b9150600090505b94509492505050565b600081600481111561074857610748610b8d565b14156107515750565b600181600481111561076557610765610b8d565b14156107ae5760405162461bcd60e51b815260206004820152601860248201527745434453413a20696e76616c6964207369676e617475726560401b604482015260640161012e565b60028160048111156107c2576107c2610b8d565b14156108105760405162461bcd60e51b815260206004820152601f60248201527f45434453413a20696e76616c6964207369676e6174757265206c656e67746800604482015260640161012e565b600381600481111561082457610824610b8d565b141561087d5760405162461bcd60e51b815260206004820152602260248201527f45434453413a20696e76616c6964207369676e6174757265202773272076616c604482015261756560f01b606482015260840161012e565b600481600481111561089157610891610b8d565b14156108ea5760405162461bcd60e51b815260206004820152602260248201527f45434453413a20696e76616c6964207369676e6174757265202776272076616c604482015261756560f01b606482015260840161012e565b50565b6000306001600160a01b037f00000000000000000000000000000000000000000000000000000000000000001614801561094657507f000000000000000000000000000000000000000000000000000000000000000046145b1561097057507f000000000000000000000000000000000000000000000000000000000000000090565b50604080517f00000000000000000000000000000000000000000000000000000000000000006020808301919091527f0000000000000000000000000000000000000000000000000000000000000000828401527f000000000000000000000000000000000000000000000000000000000000000060608301524660808301523060a0808401919091528351808403909101815260c0909201909252805191012090565b8051608082015160208084015160408086015160a087015160c088015160e08901519351600098610a4b9890979096959101610d8b565b604051602081830303815290604052805190602001209050919050565b828054610a7490610c8d565b90600052602060002090601f016020900481019282610a965760008555610adc565b82601f10610aaf57805160ff1916838001178555610adc565b82800160010185558215610adc579182015b82811115610adc578251825591602001919060010190610ac1565b50610ae8929150610aec565b5090565b5b80821115610ae85760008155600101610aed565b600060208284031215610b1357600080fd5b5035919050565b60008060008060808587031215610b3057600080fd5b84359350602085013560ff81168114610b4857600080fd5b93969395505050506040820135916060013590565b60005b83811015610b78578181015183820152602001610b60565b83811115610b87576000848401525b50505050565b634e487b7160e01b600052602160045260246000fd5b60038110610bc157634e487b7160e01b600052602160045260246000fd5b9052565b60006101008a8352896020840152886040840152806060840152875180828501526101209150610bfb8183860160208c01610b5d565b6001600160a01b03888116608086015287811660a0860152861660c0850152601f01601f19168301019050610c3360e0830184610ba3565b9998505050505050505050565b60008060008060808587031215610c5657600080fd5b8435935060208501356001600160a01b0381168114610b4857600080fd5b600060208284031215610c8657600080fd5b5051919050565b600181811c90821680610ca157607f821691505b60208210811415610cc257634e487b7160e01b600052602260045260246000fd5b50919050565b634e487b7160e01b600052604160045260246000fd5b600060208284031215610cf057600080fd5b815167ffffffffffffffff80821115610d0857600080fd5b818401915084601f830112610d1c57600080fd5b815181811115610d2e57610d2e610cc8565b604051601f8201601f19908116603f01168101908382118183101715610d5657610d56610cc8565b81604052828152876020848701011115610d6f57600080fd5b610d80836020830160208801610b5d565b979650505050505050565b8781526001600160a01b03878116602083015260408201879052606082018690528481166080830152831660a082015260e08101610dcc60c0830184610ba3565b9897505050505050505056fea2646970667358221220d4e19995ea722c286caeedab87d0fe184c7aca7bb0c07524b96b7b5ba9f0809464736f6c634300080a0033",
  "linkReferences": {},
  "deployedLinkReferences": {}
}