{
  "_format": "hh-sol-artifact-1",
  "contractName": "Marketplace",
  "sourceName": "contracts/Marketplace.sol",
  "abi": [
    {
      "inputs": [
        {
          "internalType": "uint256",
          "name": "_biddingTime",
          "type": "uint256"
        },
        {
          "internalType": "uint256",
          "name": "_minBiddingTime",
          "type": "uint256"
        },
        {
          "internalType": "uint256",
          "name": "_maxBiddingTime",
          "type": "uint256"
        },
        {
          "internalType": "address",
          "name": "_acceptedToken",
          "type": "address"
        },
        {
          "internalType": "address",
          "name": "_itemCreator",
          "type": "address"
        },
        {
          "internalType": "string",
          "name": "_nftName",
          "type": "string"
        },
        {
          "internalType": "string",
          "name": "_nftSymbol",
          "type": "string"
        },
        {
          "internalType": "string",
          "name": "_uri",
          "type": "string"
        }
      ],
      "stateMutability": "nonpayable",
      "type": "constructor"
    },
    {
      "anonymous": false,
      "inputs": [
        {
          "indexed": true,
          "internalType": "uint256",
          "name": "orderId",
          "type": "uint256"
        },
        {
          "indexed": false,
          "internalType": "uint256",
          "name": "numBids",
          "type": "uint256"
        }
      ],
      "name": "AuctionFinished",
      "type": "event"
    },
    {
      "anonymous": false,
      "inputs": [
        {
          "indexed": false,
          "internalType": "address",
          "name": "from",
          "type": "address"
        },
        {
          "indexed": false,
          "internalType": "uint256",
          "name": "newBiddingTime",
          "type": "uint256"
        }
      ],
      "name": "BiddingTimeChanged",
      "type": "event"
    },
    {
      "anonymous": false,
      "inputs": [
        {
          "indexed": true,
          "internalType": "uint256",
          "name": "orderId",
          "type": "uint256"
        },
        {
          "indexed": false,
          "internalType": "bool",
          "name": "isSold",
          "type": "bool"
        }
      ],
      "name": "CancelledOrder",
      "type": "event"
    },
    {
      "anonymous": false,
      "inputs": [
        {
          "indexed": true,
          "internalType": "uint256",
          "name": "orderId",
          "type": "uint256"
        },
        {
          "indexed": true,
          "internalType": "address",
          "name": "maker",
          "type": "address"
        },
        {
          "indexed": false,
          "internalType": "uint256",
          "name": "bidAmount",
          "type": "uint256"
        }
      ],
      "name": "NewHighestBid",
      "type": "event"
    },
    {
      "anonymous": false,
      "inputs": [
        {
          "indexed": true,
          "internalType": "address",
          "name": "previousOwner",
          "type": "address"
        },
        {
          "indexed": true,
          "internalType": "address",
          "name": "newOwner",
          "type": "address"
        }
      ],
      "name": "OwnershipTransferred",
      "type": "event"
    },
    {
      "anonymous": false,
      "inputs": [
        {
          "indexed": false,
          "internalType": "address",
          "name": "account",
          "type": "address"
        }
      ],
      "name": "Paused",
      "type": "event"
    },
    {
      "anonymous": false,
      "inputs": [
        {
          "indexed": true,
          "internalType": "uint256",
          "name": "orderId",
          "type": "uint256"
        },
        {
          "indexed": false,
          "internalType": "address",
          "name": "itemContract",
          "type": "address"
        },
        {
          "indexed": true,
          "internalType": "uint256",
          "name": "itemId",
          "type": "uint256"
        },
        {
          "indexed": true,
          "internalType": "address",
          "name": "owner",
          "type": "address"
        },
        {
          "indexed": false,
          "internalType": "uint256",
          "name": "basePrice",
          "type": "uint256"
        }
      ],
      "name": "PlacedOrder",
      "type": "event"
    },
    {
      "anonymous": false,
      "inputs": [
        {
          "indexed": true,
          "internalType": "uint256",
          "name": "orderId",
          "type": "uint256"
        },
        {
          "indexed": false,
          "internalType": "address",
          "name": "itemContract",
          "type": "address"
        },
        {
          "indexed": true,
          "internalType": "uint256",
          "name": "itemId",
          "type": "uint256"
        },
        {
          "indexed": false,
          "internalType": "address",
          "name": "maker",
          "type": "address"
        },
        {
          "indexed": false,
          "internalType": "address",
          "name": "taker",
          "type": "address"
        },
        {
          "indexed": false,
          "internalType": "uint256",
          "name": "price",
          "type": "uint256"
        }
      ],
      "name": "Purchase",
      "type": "event"
    },
    {
      "anonymous": false,
      "inputs": [
        {
          "indexed": true,
          "internalType": "bytes32",
          "name": "role",
          "type": "bytes32"
        },
        {
          "indexed": true,
          "internalType": "bytes32",
          "name": "previousAdminRole",
          "type": "bytes32"
        },
        {
          "indexed": true,
          "internalType": "bytes32",
          "name": "newAdminRole",
          "type": "bytes32"
        }
      ],
      "name": "RoleAdminChanged",
      "type": "event"
    },
    {
      "anonymous": false,
      "inputs": [
        {
          "indexed": true,
          "internalType": "bytes32",
          "name": "role",
          "type": "bytes32"
        },
        {
          "indexed": true,
          "internalType": "address",
          "name": "account",
          "type": "address"
        },
        {
          "indexed": true,
          "internalType": "address",
          "name": "sender",
          "type": "address"
        }
      ],
      "name": "RoleGranted",
      "type": "event"
    },
    {
      "anonymous": false,
      "inputs": [
        {
          "indexed": true,
          "internalType": "bytes32",
          "name": "role",
          "type": "bytes32"
        },
        {
          "indexed": true,
          "internalType": "address",
          "name": "account",
          "type": "address"
        },
        {
          "indexed": true,
          "internalType": "address",
          "name": "sender",
          "type": "address"
        }
      ],
      "name": "RoleRevoked",
      "type": "event"
    },
    {
      "anonymous": false,
      "inputs": [
        {
          "indexed": true,
          "internalType": "address",
          "name": "sweeper",
          "type": "address"
        },
        {
          "indexed": true,
          "internalType": "contract IERC20",
          "name": "token",
          "type": "address"
        },
        {
          "indexed": false,
          "internalType": "uint256",
          "name": "amount",
          "type": "uint256"
        },
        {
          "indexed": true,
          "internalType": "address",
          "name": "recipient",
          "type": "address"
        }
      ],
      "name": "TokenSweep",
      "type": "event"
    },
    {
      "anonymous": false,
      "inputs": [
        {
          "indexed": false,
          "internalType": "address",
          "name": "account",
          "type": "address"
        }
      ],
      "name": "Unpaused",
      "type": "event"
    },
    {
      "inputs": [],
      "name": "CREATOR_ROLE",
      "outputs": [
        {
          "internalType": "bytes32",
          "name": "",
          "type": "bytes32"
        }
      ],
      "stateMutability": "view",
      "type": "function"
    },
    {
      "inputs": [],
      "name": "DEFAULT_ADMIN_ROLE",
      "outputs": [
        {
          "internalType": "bytes32",
          "name": "",
          "type": "bytes32"
        }
      ],
      "stateMutability": "view",
      "type": "function"
    },
    {
      "inputs": [],
      "name": "acceptedToken",
      "outputs": [
        {
          "internalType": "address",
          "name": "",
          "type": "address"
        }
      ],
      "stateMutability": "view",
      "type": "function"
    },
    {
      "inputs": [],
      "name": "acdm1155",
      "outputs": [
        {
          "internalType": "address",
          "name": "",
          "type": "address"
        }
      ],
      "stateMutability": "view",
      "type": "function"
    },
    {
      "inputs": [],
      "name": "acdm721",
      "outputs": [
        {
          "internalType": "address",
          "name": "",
          "type": "address"
        }
      ],
      "stateMutability": "view",
      "type": "function"
    },
    {
      "inputs": [],
      "name": "biddingTime",
      "outputs": [
        {
          "internalType": "uint256",
          "name": "",
          "type": "uint256"
        }
      ],
      "stateMutability": "view",
      "type": "function"
    },
    {
      "inputs": [
        {
          "internalType": "uint256",
          "name": "",
          "type": "uint256"
        },
        {
          "internalType": "uint256",
          "name": "",
          "type": "uint256"
        }
      ],
      "name": "bids",
      "outputs": [
        {
          "internalType": "uint256",
          "name": "amount",
          "type": "uint256"
        },
        {
          "internalType": "address",
          "name": "bidder",
          "type": "address"
        }
      ],
      "stateMutability": "view",
      "type": "function"
    },
    {
      "inputs": [
        {
          "internalType": "uint256",
          "name": "orderId",
          "type": "uint256"
        }
      ],
      "name": "buyOrder",
      "outputs": [],
      "stateMutability": "nonpayable",
      "type": "function"
    },
    {
      "inputs": [
        {
          "internalType": "uint256",
          "name": "orderId",
          "type": "uint256"
        }
      ],
      "name": "cancelOrder",
      "outputs": [],
      "stateMutability": "nonpayable",
      "type": "function"
    },
    {
      "inputs": [
        {
          "internalType": "uint256",
          "name": "_biddingTime",
          "type": "uint256"
        }
      ],
      "name": "changeBiddingTime",
      "outputs": [],
      "stateMutability": "nonpayable",
      "type": "function"
    },
    {
      "inputs": [],
      "name": "countOpenOrders",
      "outputs": [
        {
          "internalType": "uint256",
          "name": "numOpenOrders",
          "type": "uint256"
        }
      ],
      "stateMutability": "view",
      "type": "function"
    },
    {
      "inputs": [
        {
          "internalType": "address",
          "name": "to",
          "type": "address"
        },
        {
          "internalType": "string",
          "name": "tokenURI",
          "type": "string"
        }
      ],
      "name": "createItem",
      "outputs": [
        {
          "internalType": "uint256",
          "name": "itemId",
          "type": "uint256"
        }
      ],
      "stateMutability": "nonpayable",
      "type": "function"
    },
    {
      "inputs": [
        {
          "internalType": "address",
          "name": "to",
          "type": "address"
        },
        {
          "internalType": "uint256[]",
          "name": "ids",
          "type": "uint256[]"
        },
        {
          "internalType": "uint256[]",
          "name": "amounts",
          "type": "uint256[]"
        }
      ],
      "name": "createItemsBatch",
      "outputs": [],
      "stateMutability": "nonpayable",
      "type": "function"
    },
    {
      "inputs": [
        {
          "internalType": "uint256",
          "name": "orderId",
          "type": "uint256"
        }
      ],
      "name": "finishAuction",
      "outputs": [],
      "stateMutability": "nonpayable",
      "type": "function"
    },
    {
      "inputs": [
        {
          "internalType": "uint256",
          "name": "orderId",
          "type": "uint256"
        }
      ],
      "name": "getBidsByOrder",
      "outputs": [
        {
          "components": [
            {
              "internalType": "uint256",
              "name": "amount",
              "type": "uint256"
            },
            {
              "internalType": "address",
              "name": "bidder",
              "type": "address"
            }
          ],
          "internalType": "struct Marketplace.Bid[]",
          "name": "",
          "type": "tuple[]"
        }
      ],
      "stateMutability": "view",
      "type": "function"
    },
    {
      "inputs": [],
      "name": "getBidsHistory",
      "outputs": [
        {
          "components": [
            {
              "internalType": "uint256",
              "name": "amount",
              "type": "uint256"
            },
            {
              "internalType": "address",
              "name": "bidder",
              "type": "address"
            }
          ],
          "internalType": "struct Marketplace.Bid[][]",
          "name": "",
          "type": "tuple[][]"
        }
      ],
      "stateMutability": "view",
      "type": "function"
    },
    {
      "inputs": [],
      "name": "getOpenOrders",
      "outputs": [
        {
          "components": [
            {
              "internalType": "address",
              "name": "itemContract",
              "type": "address"
            },
            {
              "internalType": "uint256",
              "name": "itemId",
              "type": "uint256"
            },
            {
              "internalType": "uint256",
              "name": "basePrice",
              "type": "uint256"
            },
            {
              "internalType": "uint256",
              "name": "listedAt",
              "type": "uint256"
            },
            {
              "internalType": "uint256",
              "name": "expiresAt",
              "type": "uint256"
            },
            {
              "internalType": "uint256",
              "name": "endTime",
              "type": "uint256"
            },
            {
              "internalType": "uint256",
              "name": "numBids",
              "type": "uint256"
            },
            {
              "internalType": "uint256",
              "name": "bidStep",
              "type": "uint256"
            },
            {
              "internalType": "address",
              "name": "maker",
              "type": "address"
            },
            {
              "internalType": "enum Marketplace.OrderType",
              "name": "orderType",
              "type": "uint8"
            }
          ],
          "internalType": "struct Marketplace.Order[]",
          "name": "",
          "type": "tuple[]"
        }
      ],
      "stateMutability": "view",
      "type": "function"
    },
    {
      "inputs": [],
      "name": "getOrdersHistory",
      "outputs": [
        {
          "components": [
            {
              "internalType": "address",
              "name": "itemContract",
              "type": "address"
            },
            {
              "internalType": "uint256",
              "name": "itemId",
              "type": "uint256"
            },
            {
              "internalType": "uint256",
              "name": "basePrice",
              "type": "uint256"
            },
            {
              "internalType": "uint256",
              "name": "listedAt",
              "type": "uint256"
            },
            {
              "internalType": "uint256",
              "name": "expiresAt",
              "type": "uint256"
            },
            {
              "internalType": "uint256",
              "name": "endTime",
              "type": "uint256"
            },
            {
              "internalType": "uint256",
              "name": "numBids",
              "type": "uint256"
            },
            {
              "internalType": "uint256",
              "name": "bidStep",
              "type": "uint256"
            },
            {
              "internalType": "address",
              "name": "maker",
              "type": "address"
            },
            {
              "internalType": "enum Marketplace.OrderType",
              "name": "orderType",
              "type": "uint8"
            }
          ],
          "internalType": "struct Marketplace.Order[]",
          "name": "",
          "type": "tuple[]"
        }
      ],
      "stateMutability": "view",
      "type": "function"
    },
    {
      "inputs": [
        {
          "internalType": "bytes32",
          "name": "role",
          "type": "bytes32"
        }
      ],
      "name": "getRoleAdmin",
      "outputs": [
        {
          "internalType": "bytes32",
          "name": "",
          "type": "bytes32"
        }
      ],
      "stateMutability": "view",
      "type": "function"
    },
    {
      "inputs": [
        {
          "internalType": "bytes32",
          "name": "role",
          "type": "bytes32"
        },
        {
          "internalType": "address",
          "name": "account",
          "type": "address"
        }
      ],
      "name": "grantRole",
      "outputs": [],
      "stateMutability": "nonpayable",
      "type": "function"
    },
    {
      "inputs": [
        {
          "internalType": "bytes32",
          "name": "role",
          "type": "bytes32"
        },
        {
          "internalType": "address",
          "name": "account",
          "type": "address"
        }
      ],
      "name": "hasRole",
      "outputs": [
        {
          "internalType": "bool",
          "name": "",
          "type": "bool"
        }
      ],
      "stateMutability": "view",
      "type": "function"
    },
    {
      "inputs": [
        {
          "internalType": "address",
          "name": "itemContract",
          "type": "address"
        },
        {
          "internalType": "uint256",
          "name": "itemId",
          "type": "uint256"
        }
      ],
      "name": "isListed",
      "outputs": [
        {
          "internalType": "bool",
          "name": "",
          "type": "bool"
        }
      ],
      "stateMutability": "view",
      "type": "function"
    },
    {
      "inputs": [
        {
          "internalType": "address",
          "name": "itemContract",
          "type": "address"
        },
        {
          "internalType": "uint256",
          "name": "itemId",
          "type": "uint256"
        },
        {
          "internalType": "uint256",
          "name": "basePrice",
          "type": "uint256"
        },
        {
          "internalType": "uint256",
          "name": "bidStep",
          "type": "uint256"
        }
      ],
      "name": "listAuction",
      "outputs": [],
      "stateMutability": "nonpayable",
      "type": "function"
    },
    {
      "inputs": [
        {
          "internalType": "address",
          "name": "itemContract",
          "type": "address"
        },
        {
          "internalType": "uint256",
          "name": "itemId",
          "type": "uint256"
        },
        {
          "internalType": "uint256",
          "name": "basePrice",
          "type": "uint256"
        }
      ],
      "name": "listFixedPrice",
      "outputs": [],
      "stateMutability": "nonpayable",
      "type": "function"
    },
    {
      "inputs": [
        {
          "internalType": "uint256",
          "name": "orderId",
          "type": "uint256"
        },
        {
          "internalType": "uint256",
          "name": "bidAmount",
          "type": "uint256"
        }
      ],
      "name": "makeBid",
      "outputs": [],
      "stateMutability": "nonpayable",
      "type": "function"
    },
    {
      "inputs": [],
      "name": "maxBiddingTime",
      "outputs": [
        {
          "internalType": "uint256",
          "name": "",
          "type": "uint256"
        }
      ],
      "stateMutability": "view",
      "type": "function"
    },
    {
      "inputs": [],
      "name": "minBiddingTime",
      "outputs": [
        {
          "internalType": "uint256",
          "name": "",
          "type": "uint256"
        }
      ],
      "stateMutability": "view",
      "type": "function"
    },
    {
      "inputs": [
        {
          "internalType": "address",
          "name": "",
          "type": "address"
        },
        {
          "internalType": "address",
          "name": "",
          "type": "address"
        },
        {
          "internalType": "uint256[]",
          "name": "",
          "type": "uint256[]"
        },
        {
          "internalType": "uint256[]",
          "name": "",
          "type": "uint256[]"
        },
        {
          "internalType": "bytes",
          "name": "",
          "type": "bytes"
        }
      ],
      "name": "onERC1155BatchReceived",
      "outputs": [
        {
          "internalType": "bytes4",
          "name": "",
          "type": "bytes4"
        }
      ],
      "stateMutability": "nonpayable",
      "type": "function"
    },
    {
      "inputs": [
        {
          "internalType": "address",
          "name": "",
          "type": "address"
        },
        {
          "internalType": "address",
          "name": "",
          "type": "address"
        },
        {
          "internalType": "uint256",
          "name": "",
          "type": "uint256"
        },
        {
          "internalType": "uint256",
          "name": "",
          "type": "uint256"
        },
        {
          "internalType": "bytes",
          "name": "",
          "type": "bytes"
        }
      ],
      "name": "onERC1155Received",
      "outputs": [
        {
          "internalType": "bytes4",
          "name": "",
          "type": "bytes4"
        }
      ],
      "stateMutability": "nonpayable",
      "type": "function"
    },
    {
      "inputs": [
        {
          "internalType": "address",
          "name": "",
          "type": "address"
        },
        {
          "internalType": "address",
          "name": "",
          "type": "address"
        },
        {
          "internalType": "uint256",
          "name": "",
          "type": "uint256"
        },
        {
          "internalType": "bytes",
          "name": "",
          "type": "bytes"
        }
      ],
      "name": "onERC721Received",
      "outputs": [
        {
          "internalType": "bytes4",
          "name": "",
          "type": "bytes4"
        }
      ],
      "stateMutability": "nonpayable",
      "type": "function"
    },
    {
      "inputs": [
        {
          "internalType": "uint256",
          "name": "",
          "type": "uint256"
        }
      ],
      "name": "orders",
      "outputs": [
        {
          "internalType": "address",
          "name": "itemContract",
          "type": "address"
        },
        {
          "internalType": "uint256",
          "name": "itemId",
          "type": "uint256"
        },
        {
          "internalType": "uint256",
          "name": "basePrice",
          "type": "uint256"
        },
        {
          "internalType": "uint256",
          "name": "listedAt",
          "type": "uint256"
        },
        {
          "internalType": "uint256",
          "name": "expiresAt",
          "type": "uint256"
        },
        {
          "internalType": "uint256",
          "name": "endTime",
          "type": "uint256"
        },
        {
          "internalType": "uint256",
          "name": "numBids",
          "type": "uint256"
        },
        {
          "internalType": "uint256",
          "name": "bidStep",
          "type": "uint256"
        },
        {
          "internalType": "address",
          "name": "maker",
          "type": "address"
        },
        {
          "internalType": "enum Marketplace.OrderType",
          "name": "orderType",
          "type": "uint8"
        }
      ],
      "stateMutability": "view",
      "type": "function"
    },
    {
      "inputs": [],
      "name": "owner",
      "outputs": [
        {
          "internalType": "address",
          "name": "",
          "type": "address"
        }
      ],
      "stateMutability": "view",
      "type": "function"
    },
    {
      "inputs": [],
      "name": "pause",
      "outputs": [],
      "stateMutability": "nonpayable",
      "type": "function"
    },
    {
      "inputs": [],
      "name": "paused",
      "outputs": [
        {
          "internalType": "bool",
          "name": "",
          "type": "bool"
        }
      ],
      "stateMutability": "view",
      "type": "function"
    },
    {
      "inputs": [],
      "name": "renounceOwnership",
      "outputs": [],
      "stateMutability": "nonpayable",
      "type": "function"
    },
    {
      "inputs": [
        {
          "internalType": "bytes32",
          "name": "role",
          "type": "bytes32"
        },
        {
          "internalType": "address",
          "name": "account",
          "type": "address"
        }
      ],
      "name": "renounceRole",
      "outputs": [],
      "stateMutability": "nonpayable",
      "type": "function"
    },
    {
      "inputs": [
        {
          "internalType": "bytes32",
          "name": "role",
          "type": "bytes32"
        },
        {
          "internalType": "address",
          "name": "account",
          "type": "address"
        }
      ],
      "name": "revokeRole",
      "outputs": [],
      "stateMutability": "nonpayable",
      "type": "function"
    },
    {
      "inputs": [
        {
          "internalType": "bytes4",
          "name": "interfaceId",
          "type": "bytes4"
        }
      ],
      "name": "supportsInterface",
      "outputs": [
        {
          "internalType": "bool",
          "name": "",
          "type": "bool"
        }
      ],
      "stateMutability": "view",
      "type": "function"
    },
    {
      "inputs": [
        {
          "internalType": "contract IERC20",
          "name": "_token",
          "type": "address"
        },
        {
          "internalType": "uint256",
          "name": "_amount",
          "type": "uint256"
        },
        {
          "internalType": "address",
          "name": "_address",
          "type": "address"
        }
      ],
      "name": "sweep",
      "outputs": [],
      "stateMutability": "nonpayable",
      "type": "function"
    },
    {
      "inputs": [
        {
          "internalType": "address",
          "name": "newOwner",
          "type": "address"
        }
      ],
      "name": "transferOwnership",
      "outputs": [],
      "stateMutability": "nonpayable",
      "type": "function"
    },
    {
      "inputs": [],
      "name": "unpause",
      "outputs": [],
      "stateMutability": "nonpayable",
      "type": "function"
    }
  ],
  "bytecode": "0x60806040523480156200001157600080fd5b50604051620072a1380380620072a183398101604081905262000034916200038e565b6001805460ff19169055620000493362000171565b600288905560038790556004869055600680546001600160a01b0319166001600160a01b0387161790556040518390839062000085906200027b565b6200009292919062000491565b604051809103906000f080158015620000af573d6000803e3d6000fd5b50600780546001600160a01b0319166001600160a01b03929092169190911790556040518190620000e09062000289565b620000ec9190620004c3565b604051809103906000f08015801562000109573d6000803e3d6000fd5b50600880546001600160a01b0319166001600160a01b039290921691909117905562000137600033620001cb565b620001637f828634d95e775031b9ff576b159a8509d3053581a8c9c4d7d86899e0afcd882f85620001cb565b5050505050505050620004df565b600180546001600160a01b03838116610100818102610100600160a81b031985161790945560405193909204169182907f8be0079c531659141344cd1fd0a4f28419497f9722a3daafe3b4186f6b6457e090600090a35050565b620001d78282620001db565b5050565b6000828152602081815260408083206001600160a01b038516845290915290205460ff16620001d7576000828152602081815260408083206001600160a01b03851684529091529020805460ff19166001179055620002373390565b6001600160a01b0316816001600160a01b0316837f2f8788117e7eff1d82e926ec794901d17c78024a50270940304540a733656f0d60405160405180910390a45050565b61219580620034fb83390190565b611c11806200569083390190565b80516001600160a01b0381168114620002af57600080fd5b919050565b634e487b7160e01b600052604160045260246000fd5b60005b83811015620002e7578181015183820152602001620002cd565b83811115620002f7576000848401525b50505050565b600082601f8301126200030f57600080fd5b81516001600160401b03808211156200032c576200032c620002b4565b604051601f8301601f19908116603f01168101908282118183101715620003575762000357620002b4565b816040528381528660208588010111156200037157600080fd5b62000384846020830160208901620002ca565b9695505050505050565b600080600080600080600080610100898b031215620003ac57600080fd5b885197506020890151965060408901519550620003cc60608a0162000297565b9450620003dc60808a0162000297565b60a08a01519094506001600160401b0380821115620003fa57600080fd5b620004088c838d01620002fd565b945060c08b01519150808211156200041f57600080fd5b6200042d8c838d01620002fd565b935060e08b01519150808211156200044457600080fd5b50620004538b828c01620002fd565b9150509295985092959890939650565b600081518084526200047d816020860160208601620002ca565b601f01601f19169290920160200192915050565b604081526000620004a6604083018562000463565b8281036020840152620004ba818562000463565b95945050505050565b602081526000620004d8602083018462000463565b9392505050565b61300c80620004ef6000396000f3fe608060405234801561001057600080fd5b50600436106102535760003560e01c80638456cb5911610146578063b236eabb116100c3578063d547741f11610087578063d547741f146105fc578063dbe5bab51461060f578063dc2c256f14610617578063f23a6e611461062a578063f2fde38b14610649578063fde3498e1461065c57600080fd5b8063b236eabb1461059b578063bc197c81146105ae578063cdb3cd25146105cd578063cf266ed0146105e0578063d074a38d146105f357600080fd5b8063946080e71161010a578063946080e7146104d2578063a217fddf146104e5578063a85c38ef146104ed578063adf994cb14610573578063adfcdc111461058857600080fd5b80638456cb591461047157806386cda824146104795780638aeda25a146104825780638da5cb5b146104a957806391d14854146104bf57600080fd5b80633f4ba83a116101d45780635c975abb116101985780635c975abb146103de578063646b781e146103e957806370224bb9146103fe578063715018a6146104115780637b3c4baa1461041957600080fd5b80633f4ba83a1461037d578063451c3d80146103855780634ff4ed0e14610398578063514fcac7146103b857806355f680f8146103cb57600080fd5b806322f85eaa1161021b57806322f85eaa1461030e578063248a9ca31461032157806326fb76c2146103445780632f2ff15d1461035757806336568abe1461036a57600080fd5b806301ffc9a714610258578063150b7a021461028057806315466e38146102b75780631d405ec1146102ce5780631ea4b885146102f9575b600080fd5b61026b61026636600461251e565b610664565b60405190151581526020015b60405180910390f35b61029e61028e36600461261a565b630a85bd0160e11b949350505050565b6040516001600160e01b03199091168152602001610277565b6102c060035481565b604051908152602001610277565b6007546102e1906001600160a01b031681565b6040516001600160a01b039091168152602001610277565b61030c610307366004612685565b61069b565b005b61030c61031c366004612685565b610758565b6102c061032f366004612685565b60009081526020819052604090206001015490565b6102c061035236600461269e565b610996565b61030c610365366004612701565b610a63565b61030c610378366004612701565b610a8e565b61030c610b08565b6006546102e1906001600160a01b031681565b6103ab6103a6366004612685565b610b1f565b6040516102779190612731565b61030c6103c6366004612685565b610c1c565b61030c6103d9366004612800565b610dcb565b60015460ff1661026b565b6103f1610e85565b6040516102779190612875565b61030c61040c366004612916565b610f38565b61030c610fb3565b610454610427366004612951565b600a602090815260009283526040808420909152908252902080546001909101546001600160a01b031682565b604080519283526001600160a01b03909116602083015201610277565b61030c610fef565b6102c060045481565b6102c07f828634d95e775031b9ff576b159a8509d3053581a8c9c4d7d86899e0afcd882f81565b60015461010090046001600160a01b03166102e1565b61026b6104cd366004612701565b611003565b61030c6104e0366004612973565b61102c565b6102c0600081565b61055d6104fb366004612685565b6009602052600090815260409020805460018201546002830154600384015460048501546005860154600687015460078801546008909801546001600160a01b039788169896979596949593949293919291811690600160a01b900460ff168a565b6040516102779a999897969594939291906129e0565b61057b611084565b6040516102779190612a48565b61030c610596366004612951565b6111e7565b6008546102e1906001600160a01b031681565b61029e6105bc366004612b0c565b63bc197c8160e01b95945050505050565b61026b6105db366004612bb9565b611484565b61030c6105ee366004612685565b61151d565b6102c060025481565b61030c61060a366004612701565b611779565b61057b61179f565b61030c610625366004612be5565b61192e565b61029e610638366004612c27565b63f23a6e6160e01b95945050505050565b61030c610657366004612c8f565b6119d4565b6102c0611a72565b60006001600160e01b03198216630271189760e51b148061069557506301ffc9a760e01b6001600160e01b03198316145b92915050565b60006106a78133611ac5565b600354821180156106b9575060045482105b6107165760405162461bcd60e51b815260206004820152602360248201527f54696d65206d7573742062652077697468696e20746865206d696e20616e64206044820152620dac2f60eb1b60648201526084015b60405180910390fd5b600282905560408051338152602081018490527f25adaf8f257d8dd36f82c8da9c1d840696ad3c1db35764e8867cf253e6d728ab910160405180910390a15050565b60015460ff161561077b5760405162461bcd60e51b815260040161070d90612cac565b600081815260096020908152604080832081516101408101835281546001600160a01b039081168252600180840154958301959095526002830154938201939093526003820154606082015260048201546080820152600582015460a0820152600682015460c0820152600782015460e08201526008820154928316610100820152929091610120840191600160a01b90910460ff1690811115610821576108216129a8565b6001811115610832576108326129a8565b8152505090506000816040015111801561084e575060a0810151155b61089a5760405162461bcd60e51b815260206004820152601c60248201527f4f726465722063616e63656c6c6564206f72206e6f7420657869737400000000604482015260640161070d565b600081610120015160018111156108b3576108b36129a8565b146109005760405162461bcd60e51b815260206004820152601760248201527f43616e2774206275792061756374696f6e206f72646572000000000000000000604482015260640161070d565b8061010001516001600160a01b0316336001600160a01b031614156109675760405162461bcd60e51b815260206004820152601760248201527f43616e2774206275792066726f6d20796f757273656c66000000000000000000604482015260640161070d565b610987828260000151836020015184604001513386610100015133611b29565b610992826001611b9f565b5050565b60007f828634d95e775031b9ff576b159a8509d3053581a8c9c4d7d86899e0afcd882f6109c38133611ac5565b60015460ff16156109e65760405162461bcd60e51b815260040161070d90612cac565b600754604051636902622f60e11b81526001600160a01b039091169063d204c45e90610a189087908790600401612d2e565b6020604051808303816000875af1158015610a37573d6000803e3d6000fd5b505050506040513d601f19601f82011682018060405250810190610a5b9190612d52565b949350505050565b600082815260208190526040902060010154610a7f8133611ac5565b610a898383611c1f565b505050565b6001600160a01b0381163314610afe5760405162461bcd60e51b815260206004820152602f60248201527f416363657373436f6e74726f6c3a2063616e206f6e6c792072656e6f756e636560448201526e103937b632b9903337b91039b2b63360891b606482015260840161070d565b6109928282611ca3565b6000610b148133611ac5565b610b1c611d08565b50565b600081815260096020526040812060060154606091816001600160401b03811115610b4c57610b4c61255d565b604051908082528060200260200182016040528015610b9157816020015b6040805180820190915260008082526020820152815260200190600190039081610b6a5790505b50905060015b828111610c14576000858152600a602090815260408083208484528252918290208251808401909352805483526001908101546001600160a01b0316918301919091528390610be69084612d81565b81518110610bf657610bf6612d98565b60200260200101819052508080610c0c90612dae565b915050610b97565b509392505050565b60015460ff1615610c3f5760405162461bcd60e51b815260040161070d90612cac565b600081815260096020908152604080832081516101408101835281546001600160a01b039081168252600180840154958301959095526002830154938201939093526003820154606082015260048201546080820152600582015460a0820152600682015460c0820152600782015460e08201526008820154928316610100820152929091610120840191600160a01b90910460ff1690811115610ce557610ce56129a8565b6001811115610cf657610cf66129a8565b8152505090508061010001516001600160a01b0316336001600160a01b031614610d5a5760405162461bcd60e51b81526020600482015260156024820152742737ba103a34329037b93232b91031b932b0ba37b960591b604482015260640161070d565b60008161012001516001811115610d7357610d736129a8565b14610dc05760405162461bcd60e51b815260206004820152601d60248201527f43616e27742063616e63656c20616e2061756374696f6e206f72646572000000604482015260640161070d565b610992826000611b9f565b7f828634d95e775031b9ff576b159a8509d3053581a8c9c4d7d86899e0afcd882f610df68133611ac5565b60015460ff1615610e195760405162461bcd60e51b815260040161070d90612cac565b600854604051630fbfeffd60e11b81526001600160a01b0390911690631f7fdffa90610e4d90879087908790600401612e04565b600060405180830381600087803b158015610e6757600080fd5b505af1158015610e7b573d6000803e3d6000fd5b5050505050505050565b60606000610e9260055490565b90506000816001600160401b03811115610eae57610eae61255d565b604051908082528060200260200182016040528015610ee157816020015b6060815260200190600190039081610ecc5790505b50905060015b828111610f3157610ef781610b1f565b82610f03600184612d81565b81518110610f1357610f13612d98565b60200260200101819052508080610f2990612dae565b915050610ee7565b5092915050565b60015460ff1615610f5b5760405162461bcd60e51b815260040161070d90612cac565b8160008111610f7c5760405162461bcd60e51b815260040161070d90612e56565b8160008111610f9d5760405162461bcd60e51b815260040161070d90612e56565b610fab868686866001611d9b565b505050505050565b6001546001600160a01b03610100909104163314610fe35760405162461bcd60e51b815260040161070d90612e8d565b610fed6000611ecc565b565b6000610ffb8133611ac5565b610b1c611f26565b6000918252602082815260408084206001600160a01b0393909316845291905290205460ff1690565b60015460ff161561104f5760405162461bcd60e51b815260040161070d90612cac565b80600081116110705760405162461bcd60e51b815260040161070d90612e56565b61107e848484600080611d9b565b50505050565b6060600061109160055490565b90506000816001600160401b038111156110ad576110ad61255d565b6040519080825280602002602001820160405280156110e657816020015b6110d36124a9565b8152602001906001900390816110cb5790505b50905060015b828111610f315760008181526009602090815260409182902082516101408101845281546001600160a01b039081168252600180840154948301949094526002830154948201949094526003820154606082015260048201546080820152600582015460a0820152600682015460c0820152600782015460e08201526008820154938416610100820152929091610120840191600160a01b900460ff1690811115611199576111996129a8565b60018111156111aa576111aa6129a8565b905250826111b9600184612d81565b815181106111c9576111c9612d98565b602002602001018190525080806111df90612dae565b9150506110ec565b60015460ff161561120a5760405162461bcd60e51b815260040161070d90612cac565b6000828152600960205260409020600481015442106112625760405162461bcd60e51b81526020600482015260146024820152732134b23234b733903a34b6b29034b99037bb32b960611b604482015260640161070d565b60088101546001600160a01b03163314156112bf5760405162461bcd60e51b815260206004820152601b60248201527f43616e277420626964206f6e20796f7572206f776e206f726465720000000000604482015260640161070d565b60068101546000848152600a602090815260408083208484529091529020600783015460028401546112f19190612ec2565b8411801561130e57506007830154815461130b9190612ec2565b84115b61136b5760405162461bcd60e51b815260206004820152602860248201527f426964206d757374206265206d6f7265207468616e2068696768657374202b20604482015267062696420737465760c41b606482015260840161070d565b600181015461139e90339030906001600160a01b0316821461138d5786611f7c565b83546113999088612d81565b611f7c565b6000821180156113bb575060018101546001600160a01b03163314155b156113df57600181015481546113df916000916001600160a01b0390911690611f7c565b6006830180549060006113f183612dae565b909155505060408051808201825285815233602080830182815260008a8152600a835285812060068a0154825283528590209351845551600190930180546001600160a01b0319166001600160a01b0390941693909317909255915186815287917ff13cb67d4c8841d2c893b242b7d61382d8e3bb53c5c58a8584106e74e8c4721b910160405180910390a35050505050565b60008061149060055490565b905060015b818111611512576000818152600960205260409020600501541580156114cb575060008181526009602052604090206001015484145b80156114f057506000818152600960205260409020546001600160a01b038681169116145b1561150057600192505050610695565b8061150a81612dae565b915050611495565b506000949350505050565b60015460ff16156115405760405162461bcd60e51b815260040161070d90612cac565b60008181526009602052604090206005810154156115905760405162461bcd60e51b815260206004820152600d60248201526c27379039bab1b41037b93232b960991b604482015260640161070d565b60088101546001600160a01b031633146115e45760405162461bcd60e51b81526020600482015260156024820152742737ba103a34329037b93232b91031b932b0ba37b960591b604482015260640161070d565b60016008820154600160a01b900460ff166001811115611606576116066129a8565b1461164a5760405162461bcd60e51b81526020600482015260146024820152732737ba1030b71030bab1ba34b7b71037b93232b960611b604482015260640161070d565b428160040154111561169e5760405162461bcd60e51b815260206004820181905260248201527f43616e27742066696e697368206265666f72652062696464696e672074696d65604482015260640161070d565b60068101546000838152600a602090815260408083208484529091529020600282111561170957825460018085015483546008870154928501546116f99489946001600160a01b039182169493926000929182169116611b29565b611704846001611b9f565b611739565b811561172e576001810154815461172e916000916001600160a01b0390911690611f7c565b611739846000611b9f565b837fa26f614dfadbd6fab0e2c34abdab71ad292b06a4b47d63fda8dc3ccb85cb52098360405161176b91815260200190565b60405180910390a250505050565b6000828152602081905260409020600101546117958133611ac5565b610a898383611ca3565b606060006117ab611a72565b6001600160401b038111156117c2576117c261255d565b6040519080825280602002602001820160405280156117fb57816020015b6117e86124a9565b8152602001906001900390816117e05790505b50905060008061180a60055490565b905060015b818111611925576000818152600960205260409020600501546119135760008181526009602090815260409182902082516101408101845281546001600160a01b039081168252600180840154948301949094526002830154948201949094526003820154606082015260048201546080820152600582015460a0820152600682015460c0820152600782015460e08201526008820154938416610100820152929091610120840191600160a01b900460ff16908111156118d2576118d26129a8565b60018111156118e3576118e36129a8565b815250508484815181106118f9576118f9612d98565b6020026020010181905250828061190f90612dae565b9350505b8061191d81612dae565b91505061180f565b50919392505050565b6001546001600160a01b0361010090910416331461195e5760405162461bcd60e51b815260040161070d90612e8d565b6119726001600160a01b0384168284611fb9565b806001600160a01b0316836001600160a01b031661198d3390565b6001600160a01b03167f9ccf4a542a203e3a302cfbe38c13fdcc934a9882f80039c23c65dd5f1ee74cf2856040516119c791815260200190565b60405180910390a4505050565b6001546001600160a01b03610100909104163314611a045760405162461bcd60e51b815260040161070d90612e8d565b6001600160a01b038116611a695760405162461bcd60e51b815260206004820152602660248201527f4f776e61626c653a206e6577206f776e657220697320746865207a65726f206160448201526564647265737360d01b606482015260840161070d565b610b1c81611ecc565b600080611a7e60055490565b905060015b818111611ac057600081815260096020526040902060050154611aae5782611aaa81612dae565b9350505b80611ab881612dae565b915050611a83565b505090565b611acf8282611003565b61099257611ae7816001600160a01b0316601461201c565b611af283602061201c565b604051602001611b03929190612eda565b60408051601f198184030181529082905262461bcd60e51b825261070d91600401612f4f565b611b34838386611f7c565b611b40308288886121be565b604080516001600160a01b0388811682528481166020830152831681830152606081018690529051869189917f208006a7e974fdcb008f42ecf9d9f209351150722b7b612876ea625767c86efc9181900360800190a350505050505050565b600082815260096020526040902042600582015581611bde57600881015481546001830154611bde9230926001600160a01b03918216929116906121be565b827f408b9c01e410e6d4aaa186cb07215e2e08a5a174f9648722775cbf81e8770bdf83604051611c12911515815260200190565b60405180910390a2505050565b611c298282611003565b610992576000828152602081815260408083206001600160a01b03851684529091529020805460ff19166001179055611c5f3390565b6001600160a01b0316816001600160a01b0316837f2f8788117e7eff1d82e926ec794901d17c78024a50270940304540a733656f0d60405160405180910390a45050565b611cad8282611003565b15610992576000828152602081815260408083206001600160a01b0385168085529252808320805460ff1916905551339285917ff6391f5c32d9c69d2a47ea670b442974b53935d1edc7fd64eb21e047a839171b9190a45050565b60015460ff16611d515760405162461bcd60e51b815260206004820152601460248201527314185d5cd8589b194e881b9bdd081c185d5cd95960621b604482015260640161070d565b6001805460ff191690557f5db9ee0a495bf2e6ff9c91a7834c1ba4fdd244a5e8aa4e537bd38aeae4b073aa335b6040516001600160a01b03909116815260200160405180910390a1565b611da9600580546001019055565b6000611db460055490565b600081815260096020526040902080546001600160a01b03199081166001600160a01b038a16178255600180830189905560028301889055426003840155600883018054339381168417825594955092938693926001600160a81b031990911660ff60a01b199091161790600160a01b908490811115611e3657611e366129a8565b02179055506001836001811115611e4f57611e4f6129a8565b1415611e6f57600254611e629042612ec2565b6004820155600781018490555b611e7b333089896121be565b604080516001600160a01b0389168152602081018790523391889185917f2c4350b66378bf9fbda4d8f52640c8b0544f3f746a45ae573cafc27252cf6b98910160405180910390a450505050505050565b600180546001600160a01b03838116610100818102610100600160a81b031985161790945560405193909204169182907f8be0079c531659141344cd1fd0a4f28419497f9722a3daafe3b4186f6b6457e090600090a35050565b60015460ff1615611f495760405162461bcd60e51b815260040161070d90612cac565b6001805460ff1916811790557f62e78cea01bee320cd4e420270b5ea74000d11b0c9f74754ebdbfc544b05a25833611d7e565b6001600160a01b038316611fa157600654610a89906001600160a01b03168383611fb9565b600654610a89906001600160a01b0316848484612294565b6040516001600160a01b038316602482015260448101829052610a8990849063a9059cbb60e01b906064015b60408051601f198184030181529190526020810180516001600160e01b03166001600160e01b0319909316929092179091526122cc565b6060600061202b836002612f62565b612036906002612ec2565b6001600160401b0381111561204d5761204d61255d565b6040519080825280601f01601f191660200182016040528015612077576020820181803683370190505b509050600360fc1b8160008151811061209257612092612d98565b60200101906001600160f81b031916908160001a905350600f60fb1b816001815181106120c1576120c1612d98565b60200101906001600160f81b031916908160001a90535060006120e5846002612f62565b6120f0906001612ec2565b90505b6001811115612168576f181899199a1a9b1b9c1cb0b131b232b360811b85600f166010811061212457612124612d98565b1a60f81b82828151811061213a5761213a612d98565b60200101906001600160f81b031916908160001a90535060049490941c9361216181612f81565b90506120f3565b5083156121b75760405162461bcd60e51b815260206004820181905260248201527f537472696e67733a20686578206c656e67746820696e73756666696369656e74604482015260640161070d565b9392505050565b6008546001600160a01b0383811691161461224257604051632142170760e11b81526001600160a01b0385811660048301528481166024830152604482018390528316906342842e0e90606401600060405180830381600087803b15801561222557600080fd5b505af1158015612239573d6000803e3d6000fd5b5050505061107e565b604051637921219560e11b81526001600160a01b0385811660048301528481166024830152604482018390526001606483015260a06084830152600060a483015283169063f242432a9060c401610e4d565b6040516001600160a01b038085166024830152831660448201526064810182905261107e9085906323b872dd60e01b90608401611fe5565b6000612321826040518060400160405280602081526020017f5361666545524332303a206c6f772d6c6576656c2063616c6c206661696c6564815250856001600160a01b031661239e9092919063ffffffff16565b805190915015610a89578080602001905181019061233f9190612f98565b610a895760405162461bcd60e51b815260206004820152602a60248201527f5361666545524332303a204552433230206f7065726174696f6e20646964206e6044820152691bdd081cdd58d8d9595960b21b606482015260840161070d565b6060610a5b848460008585843b6123f75760405162461bcd60e51b815260206004820152601d60248201527f416464726573733a2063616c6c20746f206e6f6e2d636f6e7472616374000000604482015260640161070d565b600080866001600160a01b031685876040516124139190612fba565b60006040518083038185875af1925050503d8060008114612450576040519150601f19603f3d011682016040523d82523d6000602084013e612455565b606091505b5091509150612465828286612470565b979650505050505050565b6060831561247f5750816121b7565b82511561248f5782518084602001fd5b8160405162461bcd60e51b815260040161070d9190612f4f565b60405180610140016040528060006001600160a01b031681526020016000815260200160008152602001600081526020016000815260200160008152602001600081526020016000815260200160006001600160a01b0316815260200160006001811115612519576125196129a8565b905290565b60006020828403121561253057600080fd5b81356001600160e01b0319811681146121b757600080fd5b6001600160a01b0381168114610b1c57600080fd5b634e487b7160e01b600052604160045260246000fd5b604051601f8201601f191681016001600160401b038111828210171561259b5761259b61255d565b604052919050565b60006001600160401b038311156125bc576125bc61255d565b6125cf601f8401601f1916602001612573565b90508281528383830111156125e357600080fd5b828260208301376000602084830101529392505050565b600082601f83011261260b57600080fd5b6121b7838335602085016125a3565b6000806000806080858703121561263057600080fd5b843561263b81612548565b9350602085013561264b81612548565b92506040850135915060608501356001600160401b0381111561266d57600080fd5b612679878288016125fa565b91505092959194509250565b60006020828403121561269757600080fd5b5035919050565b600080604083850312156126b157600080fd5b82356126bc81612548565b915060208301356001600160401b038111156126d757600080fd5b8301601f810185136126e857600080fd5b6126f7858235602084016125a3565b9150509250929050565b6000806040838503121561271457600080fd5b82359150602083013561272681612548565b809150509250929050565b6020808252825182820181905260009190848201906040850190845b81811015612780578351805184526020908101516001600160a01b0316908401526040830193850193925060010161274d565b50909695505050505050565b600082601f83011261279d57600080fd5b813560206001600160401b038211156127b8576127b861255d565b8160051b6127c7828201612573565b92835284810182019282810190878511156127e157600080fd5b83870192505b84831015612465578235825291830191908301906127e7565b60008060006060848603121561281557600080fd5b833561282081612548565b925060208401356001600160401b038082111561283c57600080fd5b6128488783880161278c565b9350604086013591508082111561285e57600080fd5b5061286b8682870161278c565b9150509250925092565b6000602080830181845280855180835260408601915060408160051b87010192508387016000805b8381101561290857888603603f19018552825180518088529088019088880190845b818110156128f2578351805184526020908101516001600160a01b03169084015260408301938b019392506001016128bf565b509097505050938601939186019160010161289d565b509398975050505050505050565b6000806000806080858703121561292c57600080fd5b843561293781612548565b966020860135965060408601359560600135945092505050565b6000806040838503121561296457600080fd5b50508035926020909101359150565b60008060006060848603121561298857600080fd5b833561299381612548565b95602085013595506040909401359392505050565b634e487b7160e01b600052602160045260246000fd5b600281106129dc57634e487b7160e01b600052602160045260246000fd5b9052565b6001600160a01b038b81168252602082018b9052604082018a9052606082018990526080820188905260a0820187905260c0820186905260e0820185905283166101008201526101408101612a396101208301846129be565b9b9a5050505050505050505050565b602080825282518282018190526000919060409081850190868401855b82811015612aff57815180516001600160a01b0316855286810151858801528581015186860152606080820151908601526080808201519086015260a0808201519086015260c0808201519086015260e08082015190860152610100808201516001600160a01b0381168288015250506101209081015190612ae9868201836129be565b5050610140939093019290850190600101612a65565b5091979650505050505050565b600080600080600060a08688031215612b2457600080fd5b8535612b2f81612548565b94506020860135612b3f81612548565b935060408601356001600160401b0380821115612b5b57600080fd5b612b6789838a0161278c565b94506060880135915080821115612b7d57600080fd5b612b8989838a0161278c565b93506080880135915080821115612b9f57600080fd5b50612bac888289016125fa565b9150509295509295909350565b60008060408385031215612bcc57600080fd5b8235612bd781612548565b946020939093013593505050565b600080600060608486031215612bfa57600080fd5b8335612c0581612548565b9250602084013591506040840135612c1c81612548565b809150509250925092565b600080600080600060a08688031215612c3f57600080fd5b8535612c4a81612548565b94506020860135612c5a81612548565b9350604086013592506060860135915060808601356001600160401b03811115612c8357600080fd5b612bac888289016125fa565b600060208284031215612ca157600080fd5b81356121b781612548565b60208082526010908201526f14185d5cd8589b194e881c185d5cd95960821b604082015260600190565b60005b83811015612cf1578181015183820152602001612cd9565b8381111561107e5750506000910152565b60008151808452612d1a816020860160208601612cd6565b601f01601f19169290920160200192915050565b6001600160a01b0383168152604060208201819052600090610a5b90830184612d02565b600060208284031215612d6457600080fd5b5051919050565b634e487b7160e01b600052601160045260246000fd5b600082821015612d9357612d93612d6b565b500390565b634e487b7160e01b600052603260045260246000fd5b6000600019821415612dc257612dc2612d6b565b5060010190565b600081518084526020808501945080840160005b83811015612df957815187529582019590820190600101612ddd565b509495945050505050565b6001600160a01b0384168152608060208201819052600090612e2890830185612dc9565b8281036040840152612e3a8185612dc9565b8381036060909401939093525050600081526020019392505050565b6020808252601e908201527f507269636520262062696420737465702063616e2774206265207a65726f0000604082015260600190565b6020808252818101527f4f776e61626c653a2063616c6c6572206973206e6f7420746865206f776e6572604082015260600190565b60008219821115612ed557612ed5612d6b565b500190565b7f416363657373436f6e74726f6c3a206163636f756e7420000000000000000000815260008351612f12816017850160208801612cd6565b7001034b99036b4b9b9b4b733903937b6329607d1b6017918401918201528351612f43816028840160208801612cd6565b01602801949350505050565b6020815260006121b76020830184612d02565b6000816000190483118215151615612f7c57612f7c612d6b565b500290565b600081612f9057612f90612d6b565b506000190190565b600060208284031215612faa57600080fd5b815180151581146121b757600080fd5b60008251612fcc818460208701612cd6565b919091019291505056fea26469706673582212202b22251bf8744598ac7c2ce3a46de72df5d064dbf74fe4af378b651cac92e4ac64736f6c634300080a003360806040523480156200001157600080fd5b5060405162002195380380620021958339810160408190526200003491620002a4565b8151829082906200004d90600090602085019062000131565b5080516200006390600190602084019062000131565b5062000075915060009050336200007d565b50506200034b565b6200008982826200008d565b5050565b60008281526007602090815260408083206001600160a01b038516845290915290205460ff16620000895760008281526007602090815260408083206001600160a01b03851684529091529020805460ff19166001179055620000ed3390565b6001600160a01b0316816001600160a01b0316837f2f8788117e7eff1d82e926ec794901d17c78024a50270940304540a733656f0d60405160405180910390a45050565b8280546200013f906200030e565b90600052602060002090601f016020900481019282620001635760008555620001ae565b82601f106200017e57805160ff1916838001178555620001ae565b82800160010185558215620001ae579182015b82811115620001ae57825182559160200191906001019062000191565b50620001bc929150620001c0565b5090565b5b80821115620001bc5760008155600101620001c1565b634e487b7160e01b600052604160045260246000fd5b600082601f830112620001ff57600080fd5b81516001600160401b03808211156200021c576200021c620001d7565b604051601f8301601f19908116603f01168101908282118183101715620002475762000247620001d7565b816040528381526020925086838588010111156200026457600080fd5b600091505b8382101562000288578582018301518183018401529082019062000269565b838211156200029a5760008385830101525b9695505050505050565b60008060408385031215620002b857600080fd5b82516001600160401b0380821115620002d057600080fd5b620002de86838701620001ed565b93506020850151915080821115620002f557600080fd5b506200030485828601620001ed565b9150509250929050565b600181811c908216806200032357607f821691505b602082108114156200034557634e487b7160e01b600052602260045260246000fd5b50919050565b611e3a806200035b6000396000f3fe608060405234801561001057600080fd5b50600436106101425760003560e01c80636352211e116100b8578063a22cb4651161007c578063a22cb465146102c4578063b88d4fde146102d7578063c87b56dd146102ea578063d204c45e146102fd578063d547741f14610310578063e985e9c51461032357600080fd5b80636352211e1461027b57806370a082311461028e57806391d14854146102a157806395d89b41146102b4578063a217fddf146102bc57600080fd5b8063248a9ca31161010a578063248a9ca3146101d7578063282c51f3146102085780632f2ff15d1461022f57806336568abe1461024257806342842e0e1461025557806342966c681461026857600080fd5b806301ffc9a71461014757806306fdde031461016f578063081812fc14610184578063095ea7b3146101af57806323b872dd146101c4575b600080fd5b61015a610155366004611804565b61035f565b60405190151581526020015b60405180910390f35b6101776103b1565b6040516101669190611879565b61019761019236600461188c565b610443565b6040516001600160a01b039091168152602001610166565b6101c26101bd3660046118c1565b6104d0565b005b6101c26101d23660046118eb565b6105e6565b6101fa6101e536600461188c565b60009081526007602052604090206001015490565b604051908152602001610166565b6101fa7f3c11d16cbaffd01df69ce1c404f6340ee057498f5f00246190ea54220576a84881565b6101c261023d366004611927565b610617565b6101c2610250366004611927565b61063d565b6101c26102633660046118eb565b6106bb565b6101c261027636600461188c565b6106d6565b61019761028936600461188c565b61070a565b6101fa61029c366004611953565b610781565b61015a6102af366004611927565b610808565b610177610833565b6101fa600081565b6101c26102d236600461196e565b610842565b6101c26102e5366004611a36565b61084d565b6101776102f836600461188c565b610885565b6101fa61030b366004611ab2565b6109fc565b6101c261031e366004611927565b610a38565b61015a610331366004611b14565b6001600160a01b03918216600090815260056020908152604080832093909416825291909152205460ff1690565b60006001600160e01b031982166380ac58cd60e01b148061039057506001600160e01b03198216635b5e139f60e01b145b806103ab57506301ffc9a760e01b6001600160e01b03198316145b92915050565b6060600080546103c090611b3e565b80601f01602080910402602001604051908101604052809291908181526020018280546103ec90611b3e565b80156104395780601f1061040e57610100808354040283529160200191610439565b820191906000526020600020905b81548152906001019060200180831161041c57829003601f168201915b5050505050905090565b600061044e82610a5e565b6104b45760405162461bcd60e51b815260206004820152602c60248201527f4552433732313a20617070726f76656420717565727920666f72206e6f6e657860448201526b34b9ba32b73a103a37b5b2b760a11b60648201526084015b60405180910390fd5b506000908152600460205260409020546001600160a01b031690565b60006104db8261070a565b9050806001600160a01b0316836001600160a01b031614156105495760405162461bcd60e51b815260206004820152602160248201527f4552433732313a20617070726f76616c20746f2063757272656e74206f776e656044820152603960f91b60648201526084016104ab565b336001600160a01b038216148061056557506105658133610331565b6105d75760405162461bcd60e51b815260206004820152603860248201527f4552433732313a20617070726f76652063616c6c6572206973206e6f74206f7760448201527f6e6572206e6f7220617070726f76656420666f7220616c6c000000000000000060648201526084016104ab565b6105e18383610a7b565b505050565b6105f03382610ae9565b61060c5760405162461bcd60e51b81526004016104ab90611b79565b6105e1838383610bcf565b6000828152600760205260409020600101546106338133610d6f565b6105e18383610dd3565b6001600160a01b03811633146106ad5760405162461bcd60e51b815260206004820152602f60248201527f416363657373436f6e74726f6c3a2063616e206f6e6c792072656e6f756e636560448201526e103937b632b9903337b91039b2b63360891b60648201526084016104ab565b6106b78282610e59565b5050565b6105e18383836040518060200160405280600081525061084d565b7f3c11d16cbaffd01df69ce1c404f6340ee057498f5f00246190ea54220576a8486107018133610d6f565b6106b782610ec0565b6000818152600260205260408120546001600160a01b0316806103ab5760405162461bcd60e51b815260206004820152602960248201527f4552433732313a206f776e657220717565727920666f72206e6f6e657869737460448201526832b73a103a37b5b2b760b91b60648201526084016104ab565b60006001600160a01b0382166107ec5760405162461bcd60e51b815260206004820152602a60248201527f4552433732313a2062616c616e636520717565727920666f7220746865207a65604482015269726f206164647265737360b01b60648201526084016104ab565b506001600160a01b031660009081526003602052604090205490565b60009182526007602090815260408084206001600160a01b0393909316845291905290205460ff1690565b6060600180546103c090611b3e565b6106b7338383610f03565b6108573383610ae9565b6108735760405162461bcd60e51b81526004016104ab90611b79565b61087f84848484610fd2565b50505050565b606061089082610a5e565b6108f65760405162461bcd60e51b815260206004820152603160248201527f45524337323155524953746f726167653a2055524920717565727920666f72206044820152703737b732bc34b9ba32b73a103a37b5b2b760791b60648201526084016104ab565b6000828152600660205260408120805461090f90611b3e565b80601f016020809104026020016040519081016040528092919081815260200182805461093b90611b3e565b80156109885780601f1061095d57610100808354040283529160200191610988565b820191906000526020600020905b81548152906001019060200180831161096b57829003601f168201915b5050505050905060006109a660408051602081019091526000815290565b90508051600014156109b9575092915050565b8151156109eb5780826040516020016109d3929190611bca565b60405160208183030381529060405292505050919050565b6109f484611005565b949350505050565b600080610a098133610d6f565b610a17600880546001019055565b6000610a2260085490565b9050610a2e85826110dd565b6109f481856110f7565b600082815260076020526040902060010154610a548133610d6f565b6105e18383610e59565b6000908152600260205260409020546001600160a01b0316151590565b600081815260046020526040902080546001600160a01b0319166001600160a01b0384169081179091558190610ab08261070a565b6001600160a01b03167f8c5be1e5ebec7d5bd14f71427d1e84f3dd0314c0f7b2291e5b200ac8c7c3b92560405160405180910390a45050565b6000610af482610a5e565b610b555760405162461bcd60e51b815260206004820152602c60248201527f4552433732313a206f70657261746f7220717565727920666f72206e6f6e657860448201526b34b9ba32b73a103a37b5b2b760a11b60648201526084016104ab565b6000610b608361070a565b9050806001600160a01b0316846001600160a01b03161480610b9b5750836001600160a01b0316610b9084610443565b6001600160a01b0316145b806109f457506001600160a01b0380821660009081526005602090815260408083209388168352929052205460ff166109f4565b826001600160a01b0316610be28261070a565b6001600160a01b031614610c4a5760405162461bcd60e51b815260206004820152602960248201527f4552433732313a207472616e73666572206f6620746f6b656e2074686174206960448201526839903737ba1037bbb760b91b60648201526084016104ab565b6001600160a01b038216610cac5760405162461bcd60e51b8152602060048201526024808201527f4552433732313a207472616e7366657220746f20746865207a65726f206164646044820152637265737360e01b60648201526084016104ab565b610cb7600082610a7b565b6001600160a01b0383166000908152600360205260408120805460019290610ce0908490611c0f565b90915550506001600160a01b0382166000908152600360205260408120805460019290610d0e908490611c26565b909155505060008181526002602052604080822080546001600160a01b0319166001600160a01b0386811691821790925591518493918716917fddf252ad1be2c89b69c2b068fc378daa952ba7f163c4a11628f55a4df523b3ef91a4505050565b610d798282610808565b6106b757610d91816001600160a01b03166014611182565b610d9c836020611182565b604051602001610dad929190611c3e565b60408051601f198184030181529082905262461bcd60e51b82526104ab91600401611879565b610ddd8282610808565b6106b75760008281526007602090815260408083206001600160a01b03851684529091529020805460ff19166001179055610e153390565b6001600160a01b0316816001600160a01b0316837f2f8788117e7eff1d82e926ec794901d17c78024a50270940304540a733656f0d60405160405180910390a45050565b610e638282610808565b156106b75760008281526007602090815260408083206001600160a01b0385168085529252808320805460ff1916905551339285917ff6391f5c32d9c69d2a47ea670b442974b53935d1edc7fd64eb21e047a839171b9190a45050565b610ec98161131e565b60008181526006602052604090208054610ee290611b3e565b159050610f00576000818152600660205260408120610f009161171b565b50565b816001600160a01b0316836001600160a01b03161415610f655760405162461bcd60e51b815260206004820152601960248201527f4552433732313a20617070726f766520746f2063616c6c65720000000000000060448201526064016104ab565b6001600160a01b03838116600081815260056020908152604080832094871680845294825291829020805460ff191686151590811790915591519182527f17307eab39ab6107e8899845ad3d59bd9653f200f220920489ca2b5937696c31910160405180910390a3505050565b610fdd848484610bcf565b610fe9848484846113b9565b61087f5760405162461bcd60e51b81526004016104ab90611cb3565b606061101082610a5e565b6110745760405162461bcd60e51b815260206004820152602f60248201527f4552433732314d657461646174613a2055524920717565727920666f72206e6f60448201526e3732bc34b9ba32b73a103a37b5b2b760891b60648201526084016104ab565b600061108b60408051602081019091526000815290565b905060008151116110ab57604051806020016040528060008152506110d6565b806110b5846114b7565b6040516020016110c6929190611bca565b6040516020818303038152906040525b9392505050565b6106b78282604051806020016040528060008152506115b5565b61110082610a5e565b6111635760405162461bcd60e51b815260206004820152602e60248201527f45524337323155524953746f726167653a2055524920736574206f66206e6f6e60448201526d32bc34b9ba32b73a103a37b5b2b760911b60648201526084016104ab565b600082815260066020908152604090912082516105e192840190611755565b60606000611191836002611d05565b61119c906002611c26565b67ffffffffffffffff8111156111b4576111b46119aa565b6040519080825280601f01601f1916602001820160405280156111de576020820181803683370190505b509050600360fc1b816000815181106111f9576111f9611d24565b60200101906001600160f81b031916908160001a905350600f60fb1b8160018151811061122857611228611d24565b60200101906001600160f81b031916908160001a905350600061124c846002611d05565b611257906001611c26565b90505b60018111156112cf576f181899199a1a9b1b9c1cb0b131b232b360811b85600f166010811061128b5761128b611d24565b1a60f81b8282815181106112a1576112a1611d24565b60200101906001600160f81b031916908160001a90535060049490941c936112c881611d3a565b905061125a565b5083156110d65760405162461bcd60e51b815260206004820181905260248201527f537472696e67733a20686578206c656e67746820696e73756666696369656e7460448201526064016104ab565b60006113298261070a565b9050611336600083610a7b565b6001600160a01b038116600090815260036020526040812080546001929061135f908490611c0f565b909155505060008281526002602052604080822080546001600160a01b0319169055518391906001600160a01b038416907fddf252ad1be2c89b69c2b068fc378daa952ba7f163c4a11628f55a4df523b3ef908390a45050565b60006001600160a01b0384163b156114ac57604051630a85bd0160e11b81526001600160a01b0385169063150b7a02906113fd903390899088908890600401611d51565b6020604051808303816000875af1925050508015611438575060408051601f3d908101601f1916820190925261143591810190611d8e565b60015b611492573d808015611466576040519150601f19603f3d011682016040523d82523d6000602084013e61146b565b606091505b50805161148a5760405162461bcd60e51b81526004016104ab90611cb3565b805181602001fd5b6001600160e01b031916630a85bd0160e11b1490506109f4565b506001949350505050565b6060816114db5750506040805180820190915260018152600360fc1b602082015290565b8160005b811561150557806114ef81611dab565b91506114fe9050600a83611ddc565b91506114df565b60008167ffffffffffffffff811115611520576115206119aa565b6040519080825280601f01601f19166020018201604052801561154a576020820181803683370190505b5090505b84156109f45761155f600183611c0f565b915061156c600a86611df0565b611577906030611c26565b60f81b81838151811061158c5761158c611d24565b60200101906001600160f81b031916908160001a9053506115ae600a86611ddc565b945061154e565b6115bf83836115e8565b6115cc60008484846113b9565b6105e15760405162461bcd60e51b81526004016104ab90611cb3565b6001600160a01b03821661163e5760405162461bcd60e51b815260206004820181905260248201527f4552433732313a206d696e7420746f20746865207a65726f206164647265737360448201526064016104ab565b61164781610a5e565b156116945760405162461bcd60e51b815260206004820152601c60248201527f4552433732313a20746f6b656e20616c7265616479206d696e7465640000000060448201526064016104ab565b6001600160a01b03821660009081526003602052604081208054600192906116bd908490611c26565b909155505060008181526002602052604080822080546001600160a01b0319166001600160a01b03861690811790915590518392907fddf252ad1be2c89b69c2b068fc378daa952ba7f163c4a11628f55a4df523b3ef908290a45050565b50805461172790611b3e565b6000825580601f10611737575050565b601f016020900490600052602060002090810190610f0091906117d9565b82805461176190611b3e565b90600052602060002090601f01602090048101928261178357600085556117c9565b82601f1061179c57805160ff19168380011785556117c9565b828001600101855582156117c9579182015b828111156117c95782518255916020019190600101906117ae565b506117d59291506117d9565b5090565b5b808211156117d557600081556001016117da565b6001600160e01b031981168114610f0057600080fd5b60006020828403121561181657600080fd5b81356110d6816117ee565b60005b8381101561183c578181015183820152602001611824565b8381111561087f5750506000910152565b60008151808452611865816020860160208601611821565b601f01601f19169290920160200192915050565b6020815260006110d6602083018461184d565b60006020828403121561189e57600080fd5b5035919050565b80356001600160a01b03811681146118bc57600080fd5b919050565b600080604083850312156118d457600080fd5b6118dd836118a5565b946020939093013593505050565b60008060006060848603121561190057600080fd5b611909846118a5565b9250611917602085016118a5565b9150604084013590509250925092565b6000806040838503121561193a57600080fd5b8235915061194a602084016118a5565b90509250929050565b60006020828403121561196557600080fd5b6110d6826118a5565b6000806040838503121561198157600080fd5b61198a836118a5565b91506020830135801515811461199f57600080fd5b809150509250929050565b634e487b7160e01b600052604160045260246000fd5b600067ffffffffffffffff808411156119db576119db6119aa565b604051601f8501601f19908116603f01168101908282118183101715611a0357611a036119aa565b81604052809350858152868686011115611a1c57600080fd5b858560208301376000602087830101525050509392505050565b60008060008060808587031215611a4c57600080fd5b611a55856118a5565b9350611a63602086016118a5565b925060408501359150606085013567ffffffffffffffff811115611a8657600080fd5b8501601f81018713611a9757600080fd5b611aa6878235602084016119c0565b91505092959194509250565b60008060408385031215611ac557600080fd5b611ace836118a5565b9150602083013567ffffffffffffffff811115611aea57600080fd5b8301601f81018513611afb57600080fd5b611b0a858235602084016119c0565b9150509250929050565b60008060408385031215611b2757600080fd5b611b30836118a5565b915061194a602084016118a5565b600181811c90821680611b5257607f821691505b60208210811415611b7357634e487b7160e01b600052602260045260246000fd5b50919050565b60208082526031908201527f4552433732313a207472616e736665722063616c6c6572206973206e6f74206f6040820152701ddb995c881b9bdc88185c1c1c9bdd9959607a1b606082015260800190565b60008351611bdc818460208801611821565b835190830190611bf0818360208801611821565b01949350505050565b634e487b7160e01b600052601160045260246000fd5b600082821015611c2157611c21611bf9565b500390565b60008219821115611c3957611c39611bf9565b500190565b7f416363657373436f6e74726f6c3a206163636f756e7420000000000000000000815260008351611c76816017850160208801611821565b7001034b99036b4b9b9b4b733903937b6329607d1b6017918401918201528351611ca7816028840160208801611821565b01602801949350505050565b60208082526032908201527f4552433732313a207472616e7366657220746f206e6f6e20455243373231526560408201527131b2b4bb32b91034b6b83632b6b2b73a32b960711b606082015260800190565b6000816000190483118215151615611d1f57611d1f611bf9565b500290565b634e487b7160e01b600052603260045260246000fd5b600081611d4957611d49611bf9565b506000190190565b6001600160a01b0385811682528416602082015260408101839052608060608201819052600090611d849083018461184d565b9695505050505050565b600060208284031215611da057600080fd5b81516110d6816117ee565b6000600019821415611dbf57611dbf611bf9565b5060010190565b634e487b7160e01b600052601260045260246000fd5b600082611deb57611deb611dc6565b500490565b600082611dff57611dff611dc6565b50069056fea26469706673582212201a2c04f51f81dcb9b796aaab58de078ec60f64e465cf116191a0c199b7ca99ce64736f6c634300080a003360806040523480156200001157600080fd5b5060405162001c1138038062001c1183398101604081905262000034916200017a565b80620000408162000053565b506200004c336200006c565b5062000293565b805162000068906002906020840190620000be565b5050565b600380546001600160a01b038381166001600160a01b0319831681179093556040519116919082907f8be0079c531659141344cd1fd0a4f28419497f9722a3daafe3b4186f6b6457e090600090a35050565b828054620000cc9062000256565b90600052602060002090601f016020900481019282620000f057600085556200013b565b82601f106200010b57805160ff19168380011785556200013b565b828001600101855582156200013b579182015b828111156200013b5782518255916020019190600101906200011e565b50620001499291506200014d565b5090565b5b808211156200014957600081556001016200014e565b634e487b7160e01b600052604160045260246000fd5b600060208083850312156200018e57600080fd5b82516001600160401b0380821115620001a657600080fd5b818501915085601f830112620001bb57600080fd5b815181811115620001d057620001d062000164565b604051601f8201601f19908116603f01168101908382118183101715620001fb57620001fb62000164565b8160405282815288868487010111156200021457600080fd5b600093505b8284101562000238578484018601518185018701529285019262000219565b828411156200024a5760008684830101525b98975050505050505050565b600181811c908216806200026b57607f821691505b602082108114156200028d57634e487b7160e01b600052602260045260246000fd5b50919050565b61196e80620002a36000396000f3fe608060405234801561001057600080fd5b50600436106100ce5760003560e01c80634e1273f41161008c578063a22cb46511610066578063a22cb465146101ba578063e985e9c5146101cd578063f242432a14610209578063f2fde38b1461021c57600080fd5b80634e1273f414610177578063715018a6146101975780638da5cb5b1461019f57600080fd5b8062fdd58e146100d357806301ffc9a7146100f957806302fe53051461011c5780630e89341c146101315780631f7fdffa146101515780632eb2c2d614610164575b600080fd5b6100e66100e1366004610fe7565b61022f565b6040519081526020015b60405180910390f35b61010c610107366004611027565b6102c6565b60405190151581526020016100f0565b61012f61012a3660046110ec565b610318565b005b61014461013f36600461113d565b61034e565b6040516100f091906111a3565b61012f61015f36600461126b565b6103e2565b61012f610172366004611304565b61041e565b61018a6101853660046113ae565b6104b5565b6040516100f091906114b4565b61012f6105df565b6003546040516001600160a01b0390911681526020016100f0565b61012f6101c83660046114c7565b610615565b61010c6101db366004611503565b6001600160a01b03918216600090815260016020908152604080832093909416825291909152205460ff1690565b61012f610217366004611536565b610624565b61012f61022a36600461159b565b6106ab565b60006001600160a01b0383166102a05760405162461bcd60e51b815260206004820152602b60248201527f455243313135353a2062616c616e636520717565727920666f7220746865207a60448201526a65726f206164647265737360a81b60648201526084015b60405180910390fd5b506000908152602081815260408083206001600160a01b03949094168352929052205490565b60006001600160e01b03198216636cdb3d1360e11b14806102f757506001600160e01b031982166303a24d0760e21b145b8061031257506301ffc9a760e01b6001600160e01b03198316145b92915050565b6003546001600160a01b031633146103425760405162461bcd60e51b8152600401610297906115b6565b61034b81610743565b50565b60606002805461035d906115eb565b80601f0160208091040260200160405190810160405280929190818152602001828054610389906115eb565b80156103d65780601f106103ab576101008083540402835291602001916103d6565b820191906000526020600020905b8154815290600101906020018083116103b957829003601f168201915b50505050509050919050565b6003546001600160a01b0316331461040c5760405162461bcd60e51b8152600401610297906115b6565b61041884848484610756565b50505050565b6001600160a01b03851633148061043a575061043a85336101db565b6104a15760405162461bcd60e51b815260206004820152603260248201527f455243313135353a207472616e736665722063616c6c6572206973206e6f74206044820152711bdddb995c881b9bdc88185c1c1c9bdd995960721b6064820152608401610297565b6104ae85858585856108db565b5050505050565b6060815183511461051a5760405162461bcd60e51b815260206004820152602960248201527f455243313135353a206163636f756e747320616e6420696473206c656e677468604482015268040dad2e6dac2e8c6d60bb1b6064820152608401610297565b6000835167ffffffffffffffff8111156105365761053661104b565b60405190808252806020026020018201604052801561055f578160200160208202803683370190505b50905060005b84518110156105d7576105aa85828151811061058357610583611626565b602002602001015185838151811061059d5761059d611626565b602002602001015161022f565b8282815181106105bc576105bc611626565b60209081029190910101526105d081611652565b9050610565565b509392505050565b6003546001600160a01b031633146106095760405162461bcd60e51b8152600401610297906115b6565b6106136000610a77565b565b610620338383610ac9565b5050565b6001600160a01b038516331480610640575061064085336101db565b61069e5760405162461bcd60e51b815260206004820152602960248201527f455243313135353a2063616c6c6572206973206e6f74206f776e6572206e6f7260448201526808185c1c1c9bdd995960ba1b6064820152608401610297565b6104ae8585858585610baa565b6003546001600160a01b031633146106d55760405162461bcd60e51b8152600401610297906115b6565b6001600160a01b03811661073a5760405162461bcd60e51b815260206004820152602660248201527f4f776e61626c653a206e6577206f776e657220697320746865207a65726f206160448201526564647265737360d01b6064820152608401610297565b61034b81610a77565b8051610620906002906020840190610f32565b6001600160a01b0384166107b65760405162461bcd60e51b815260206004820152602160248201527f455243313135353a206d696e7420746f20746865207a65726f206164647265736044820152607360f81b6064820152608401610297565b81518351146107d75760405162461bcd60e51b81526004016102979061166d565b3360005b8451811015610873578381815181106107f6576107f6611626565b602002602001015160008087848151811061081357610813611626565b602002602001015181526020019081526020016000206000886001600160a01b03166001600160a01b03168152602001908152602001600020600082825461085b91906116b5565b9091555081905061086b81611652565b9150506107db565b50846001600160a01b031660006001600160a01b0316826001600160a01b03167f4a39dc06d4c0dbc64b70af90fd698a233a518aa5d07e595d983b8c0526c8f7fb87876040516108c49291906116cd565b60405180910390a46104ae81600087878787610cd0565b81518351146108fc5760405162461bcd60e51b81526004016102979061166d565b6001600160a01b0384166109225760405162461bcd60e51b8152600401610297906116fb565b3360005b8451811015610a0957600085828151811061094357610943611626565b60200260200101519050600085838151811061096157610961611626565b602090810291909101810151600084815280835260408082206001600160a01b038e1683529093529190912054909150818110156109b15760405162461bcd60e51b815260040161029790611740565b6000838152602081815260408083206001600160a01b038e8116855292528083208585039055908b168252812080548492906109ee9084906116b5565b9250508190555050505080610a0290611652565b9050610926565b50846001600160a01b0316866001600160a01b0316826001600160a01b03167f4a39dc06d4c0dbc64b70af90fd698a233a518aa5d07e595d983b8c0526c8f7fb8787604051610a599291906116cd565b60405180910390a4610a6f818787878787610cd0565b505050505050565b600380546001600160a01b038381166001600160a01b0319831681179093556040519116919082907f8be0079c531659141344cd1fd0a4f28419497f9722a3daafe3b4186f6b6457e090600090a35050565b816001600160a01b0316836001600160a01b03161415610b3d5760405162461bcd60e51b815260206004820152602960248201527f455243313135353a2073657474696e6720617070726f76616c20737461747573604482015268103337b91039b2b63360b91b6064820152608401610297565b6001600160a01b03838116600081815260016020908152604080832094871680845294825291829020805460ff191686151590811790915591519182527f17307eab39ab6107e8899845ad3d59bd9653f200f220920489ca2b5937696c31910160405180910390a3505050565b6001600160a01b038416610bd05760405162461bcd60e51b8152600401610297906116fb565b33610be9818787610be088610e2c565b6104ae88610e2c565b6000848152602081815260408083206001600160a01b038a16845290915290205483811015610c2a5760405162461bcd60e51b815260040161029790611740565b6000858152602081815260408083206001600160a01b038b8116855292528083208785039055908816825281208054869290610c679084906116b5565b909155505060408051868152602081018690526001600160a01b03808916928a821692918616917fc3d58168c5ae7397731d063d5bbf3d657854427343f4c083240f7aacaa2d0f62910160405180910390a4610cc7828888888888610e77565b50505050505050565b6001600160a01b0384163b15610a6f5760405163bc197c8160e01b81526001600160a01b0385169063bc197c8190610d14908990899088908890889060040161178a565b6020604051808303816000875af1925050508015610d4f575060408051601f3d908101601f19168201909252610d4c918101906117e8565b60015b610dfc57610d5b611805565b806308c379a01415610d955750610d70611821565b80610d7b5750610d97565b8060405162461bcd60e51b815260040161029791906111a3565b505b60405162461bcd60e51b815260206004820152603460248201527f455243313135353a207472616e7366657220746f206e6f6e20455243313135356044820152732932b1b2b4bb32b91034b6b83632b6b2b73a32b960611b6064820152608401610297565b6001600160e01b0319811663bc197c8160e01b14610cc75760405162461bcd60e51b8152600401610297906118ab565b60408051600180825281830190925260609160009190602080830190803683370190505090508281600081518110610e6657610e66611626565b602090810291909101015292915050565b6001600160a01b0384163b15610a6f5760405163f23a6e6160e01b81526001600160a01b0385169063f23a6e6190610ebb90899089908890889088906004016118f3565b6020604051808303816000875af1925050508015610ef6575060408051601f3d908101601f19168201909252610ef3918101906117e8565b60015b610f0257610d5b611805565b6001600160e01b0319811663f23a6e6160e01b14610cc75760405162461bcd60e51b8152600401610297906118ab565b828054610f3e906115eb565b90600052602060002090601f016020900481019282610f605760008555610fa6565b82601f10610f7957805160ff1916838001178555610fa6565b82800160010185558215610fa6579182015b82811115610fa6578251825591602001919060010190610f8b565b50610fb2929150610fb6565b5090565b5b80821115610fb25760008155600101610fb7565b80356001600160a01b0381168114610fe257600080fd5b919050565b60008060408385031215610ffa57600080fd5b61100383610fcb565b946020939093013593505050565b6001600160e01b03198116811461034b57600080fd5b60006020828403121561103957600080fd5b813561104481611011565b9392505050565b634e487b7160e01b600052604160045260246000fd5b601f8201601f1916810167ffffffffffffffff811182821017156110875761108761104b565b6040525050565b600067ffffffffffffffff8311156110a8576110a861104b565b6040516110bf601f8501601f191660200182611061565b8091508381528484840111156110d457600080fd5b83836020830137600060208583010152509392505050565b6000602082840312156110fe57600080fd5b813567ffffffffffffffff81111561111557600080fd5b8201601f8101841361112657600080fd5b6111358482356020840161108e565b949350505050565b60006020828403121561114f57600080fd5b5035919050565b6000815180845260005b8181101561117c57602081850181015186830182015201611160565b8181111561118e576000602083870101525b50601f01601f19169290920160200192915050565b6020815260006110446020830184611156565b600067ffffffffffffffff8211156111d0576111d061104b565b5060051b60200190565b600082601f8301126111eb57600080fd5b813560206111f8826111b6565b6040516112058282611061565b83815260059390931b850182019282810191508684111561122557600080fd5b8286015b848110156112405780358352918301918301611229565b509695505050505050565b600082601f83011261125c57600080fd5b6110448383356020850161108e565b6000806000806080858703121561128157600080fd5b61128a85610fcb565b9350602085013567ffffffffffffffff808211156112a757600080fd5b6112b3888389016111da565b945060408701359150808211156112c957600080fd5b6112d5888389016111da565b935060608701359150808211156112eb57600080fd5b506112f88782880161124b565b91505092959194509250565b600080600080600060a0868803121561131c57600080fd5b61132586610fcb565b945061133360208701610fcb565b9350604086013567ffffffffffffffff8082111561135057600080fd5b61135c89838a016111da565b9450606088013591508082111561137257600080fd5b61137e89838a016111da565b9350608088013591508082111561139457600080fd5b506113a18882890161124b565b9150509295509295909350565b600080604083850312156113c157600080fd5b823567ffffffffffffffff808211156113d957600080fd5b818501915085601f8301126113ed57600080fd5b813560206113fa826111b6565b6040516114078282611061565b83815260059390931b850182019282810191508984111561142757600080fd5b948201945b8386101561144c5761143d86610fcb565b8252948201949082019061142c565b9650508601359250508082111561146257600080fd5b5061146f858286016111da565b9150509250929050565b600081518084526020808501945080840160005b838110156114a95781518752958201959082019060010161148d565b509495945050505050565b6020815260006110446020830184611479565b600080604083850312156114da57600080fd5b6114e383610fcb565b9150602083013580151581146114f857600080fd5b809150509250929050565b6000806040838503121561151657600080fd5b61151f83610fcb565b915061152d60208401610fcb565b90509250929050565b600080600080600060a0868803121561154e57600080fd5b61155786610fcb565b945061156560208701610fcb565b93506040860135925060608601359150608086013567ffffffffffffffff81111561158f57600080fd5b6113a18882890161124b565b6000602082840312156115ad57600080fd5b61104482610fcb565b6020808252818101527f4f776e61626c653a2063616c6c6572206973206e6f7420746865206f776e6572604082015260600190565b600181811c908216806115ff57607f821691505b6020821081141561162057634e487b7160e01b600052602260045260246000fd5b50919050565b634e487b7160e01b600052603260045260246000fd5b634e487b7160e01b600052601160045260246000fd5b60006000198214156116665761166661163c565b5060010190565b60208082526028908201527f455243313135353a2069647320616e6420616d6f756e7473206c656e677468206040820152670dad2e6dac2e8c6d60c31b606082015260800190565b600082198211156116c8576116c861163c565b500190565b6040815260006116e06040830185611479565b82810360208401526116f28185611479565b95945050505050565b60208082526025908201527f455243313135353a207472616e7366657220746f20746865207a65726f206164604082015264647265737360d81b606082015260800190565b6020808252602a908201527f455243313135353a20696e73756666696369656e742062616c616e636520666f60408201526939103a3930b739b332b960b11b606082015260800190565b6001600160a01b0386811682528516602082015260a0604082018190526000906117b690830186611479565b82810360608401526117c88186611479565b905082810360808401526117dc8185611156565b98975050505050505050565b6000602082840312156117fa57600080fd5b815161104481611011565b600060033d111561181e5760046000803e5060005160e01c5b90565b600060443d101561182f5790565b6040516003193d81016004833e81513d67ffffffffffffffff816024840111818411171561185f57505050505090565b82850191508151818111156118775750505050505090565b843d87010160208285010111156118915750505050505090565b6118a060208286010187611061565b509095945050505050565b60208082526028908201527f455243313135353a204552433131353552656365697665722072656a656374656040820152676420746f6b656e7360c01b606082015260800190565b6001600160a01b03868116825285166020820152604081018490526060810183905260a06080820181905260009061192d90830184611156565b97965050505050505056fea2646970667358221220e089678646f600bea601b989f50d4bb992c941869c1ca5c573e050c2faead6fc64736f6c634300080a0033",
  "linkReferences": {},
  "deployedLinkReferences": {}
}